{
  "contractName": "CovidSupplyChain",
  "abi": [
    {
      "anonymous": false,
      "inputs": [
        {
          "indexed": false,
          "internalType": "address",
          "name": "id",
          "type": "address"
        },
        {
          "indexed": false,
          "internalType": "string",
          "name": "name",
          "type": "string"
        },
        {
          "indexed": false,
          "internalType": "enum CovidSupplyChain.ActorRoles",
          "name": "role",
          "type": "uint8"
        }
      ],
      "name": "AddActor",
      "type": "event"
    },
    {
      "anonymous": false,
      "inputs": [
        {
          "indexed": false,
          "internalType": "uint256",
          "name": "id",
          "type": "uint256"
        },
        {
          "indexed": false,
          "internalType": "uint256",
          "name": "size",
          "type": "uint256"
        },
        {
          "indexed": false,
          "internalType": "address",
          "name": "manufacturer",
          "type": "address"
        },
        {
          "indexed": false,
          "internalType": "uint256",
          "name": "date",
          "type": "uint256"
        }
      ],
      "name": "AddBatch",
      "type": "event"
    },
    {
      "anonymous": false,
      "inputs": [
        {
          "indexed": false,
          "internalType": "uint256",
          "name": "id",
          "type": "uint256"
        },
        {
          "indexed": false,
          "internalType": "enum CovidSupplyChain.BatchStatus",
          "name": "status",
          "type": "uint8"
        },
        {
          "indexed": false,
          "internalType": "address",
          "name": "actor",
          "type": "address"
        },
        {
          "indexed": false,
          "internalType": "uint256",
          "name": "date",
          "type": "uint256"
        }
      ],
      "name": "UpdateStatus",
      "type": "event"
    },
    {
      "inputs": [
        {
          "internalType": "string",
          "name": "_name",
          "type": "string"
        },
        {
          "internalType": "uint256",
          "name": "_role",
          "type": "uint256"
        }
      ],
      "name": "addActor",
      "outputs": [],
      "stateMutability": "nonpayable",
      "type": "function"
    },
    {
      "inputs": [
        {
          "internalType": "address",
          "name": "_actor",
          "type": "address"
        }
      ],
      "name": "getActor",
      "outputs": [
        {
          "internalType": "address",
          "name": "",
          "type": "address"
        },
        {
          "internalType": "string",
          "name": "",
          "type": "string"
        },
        {
          "internalType": "uint256",
          "name": "",
          "type": "uint256"
        }
      ],
      "stateMutability": "view",
      "type": "function",
      "constant": true
    }
  ],
  "bytecode": "0x608060405234801561001057600080fd5b506108fb806100206000396000f3fe608060405234801561001057600080fd5b50600436106100365760003560e01c8063301a18dd1461003b5780634138d16714610057575b600080fd5b610055600480360381019061005091906105e4565b610089565b005b610071600480360381019061006c919061069e565b61020b565b60405161008093929190610771565b60405180910390f35b600081600481111561009e5761009d6107af565b5b9050600060405180606001604052803373ffffffffffffffffffffffffffffffffffffffff1681526020018581526020018360048111156100e2576100e16107af565b5b815250905080600160003373ffffffffffffffffffffffffffffffffffffffff1673ffffffffffffffffffffffffffffffffffffffff16815260200190815260200160002060008201518160000160006101000a81548173ffffffffffffffffffffffffffffffffffffffff021916908373ffffffffffffffffffffffffffffffffffffffff160217905550602082015181600101908051906020019061018a9291906103b1565b5060408201518160020160006101000a81548160ff021916908360048111156101b6576101b56107af565b5b02179055509050507fb71debf70cec3c02b431cb292f0372461e9003917952bbd71fc05239f012177e8160000151826020015183604001516040516101fd93929190610826565b60405180910390a150505050565b600060606000600160008573ffffffffffffffffffffffffffffffffffffffff1673ffffffffffffffffffffffffffffffffffffffff16815260200190815260200160002060000160009054906101000a900473ffffffffffffffffffffffffffffffffffffffff16600160008673ffffffffffffffffffffffffffffffffffffffff1673ffffffffffffffffffffffffffffffffffffffff168152602001908152602001600020600101600160008773ffffffffffffffffffffffffffffffffffffffff1673ffffffffffffffffffffffffffffffffffffffff16815260200190815260200160002060020160009054906101000a900460ff166004811115610318576103176107af565b5b81805461032490610893565b80601f016020809104026020016040519081016040528092919081815260200182805461035090610893565b801561039d5780601f106103725761010080835404028352916020019161039d565b820191906000526020600020905b81548152906001019060200180831161038057829003601f168201915b505050505091509250925092509193909250565b8280546103bd90610893565b90600052602060002090601f0160209004810192826103df5760008555610426565b82601f106103f857805160ff1916838001178555610426565b82800160010185558215610426579182015b8281111561042557825182559160200191906001019061040a565b5b5090506104339190610437565b5090565b5b80821115610450576000816000905550600101610438565b5090565b6000604051905090565b600080fd5b600080fd5b600080fd5b600080fd5b6000601f19601f8301169050919050565b7f4e487b7100000000000000000000000000000000000000000000000000000000600052604160045260246000fd5b6104bb82610472565b810181811067ffffffffffffffff821117156104da576104d9610483565b5b80604052505050565b60006104ed610454565b90506104f982826104b2565b919050565b600067ffffffffffffffff82111561051957610518610483565b5b61052282610472565b9050602081019050919050565b82818337600083830152505050565b600061055161054c846104fe565b6104e3565b90508281526020810184848401111561056d5761056c61046d565b5b61057884828561052f565b509392505050565b600082601f83011261059557610594610468565b5b81356105a584826020860161053e565b91505092915050565b6000819050919050565b6105c1816105ae565b81146105cc57600080fd5b50565b6000813590506105de816105b8565b92915050565b600080604083850312156105fb576105fa61045e565b5b600083013567ffffffffffffffff81111561061957610618610463565b5b61062585828601610580565b9250506020610636858286016105cf565b9150509250929050565b600073ffffffffffffffffffffffffffffffffffffffff82169050919050565b600061066b82610640565b9050919050565b61067b81610660565b811461068657600080fd5b50565b60008135905061069881610672565b92915050565b6000602082840312156106b4576106b361045e565b5b60006106c284828501610689565b91505092915050565b6106d481610660565b82525050565b600081519050919050565b600082825260208201905092915050565b60005b838110156107145780820151818401526020810190506106f9565b83811115610723576000848401525b50505050565b6000610734826106da565b61073e81856106e5565b935061074e8185602086016106f6565b61075781610472565b840191505092915050565b61076b816105ae565b82525050565b600060608201905061078660008301866106cb565b81810360208301526107988185610729565b90506107a76040830184610762565b949350505050565b7f4e487b7100000000000000000000000000000000000000000000000000000000600052602160045260246000fd5b600581106107ef576107ee6107af565b5b50565b6000819050610800826107de565b919050565b6000610810826107f2565b9050919050565b61082081610805565b82525050565b600060608201905061083b60008301866106cb565b818103602083015261084d8185610729565b905061085c6040830184610817565b949350505050565b7f4e487b7100000000000000000000000000000000000000000000000000000000600052602260045260246000fd5b600060028204905060018216806108ab57607f821691505b602082108114156108bf576108be610864565b5b5091905056fea26469706673582212205a0255c4e64e3f5ee2f6ad7aeff1a1c6aebf9b6df8c5e0accb81df82d58c1b6d64736f6c634300080a0033",
  "immutableReferences": {},
  "source": "pragma solidity >=0.7.0 <0.9.0;\n\n\n\ncontract CovidSupplyChain {\n\n    enum BatchStatus { MANUFACTURED, DELIVER_NATIONAL, STORED_NATIONAL, DELIVER_REGIONAL, STORED_REGIONAL, DELIVER_HUB, STORED_HUB, USED}\n    enum ActorRoles  { MANUFACTURER, COURIER, NATIONAL_FACILITIES, REGIONAL_FACILITIES, VAX_HUB}\n\n    struct Actor\n    {\n        address id;\n        string name;\n        ActorRoles role;\n    }\n\n    struct VaccineBatch \n    {\n        uint size;\n        mapping (uint => Actor) chain_actors;\n        mapping (uint => uint)  chain_dates;\n    }\n\n    VaccineBatch[] batches;\n    mapping (address => Actor) actors;\n\n    event AddActor (address id, string name, ActorRoles role);\n    event AddBatch ( uint id, uint size, address manufacturer, uint date);\n    event UpdateStatus (uint id, BatchStatus status, address actor, uint date);\n\n\n    function addActor (string memory _name, uint _role) public \n    {\n        ActorRoles role =  ActorRoles(_role);\n        Actor memory member = Actor(msg.sender, _name, role);\n\n        actors[msg.sender] = member;\n\n        emit AddActor(member.id, member.name, member.role);\n    }\n\n    function getActor (address _actor) public view returns ( address, string memory,  uint)\n    {\n        return (actors[_actor].id, actors[_actor].name, uint(actors[_actor].role)) ;\n    }\n\n\n}",
  "sourcePath": "/home/andrea/Scrivania/AFC/progetto-BC/back-end/contracts/CovidSupplyChain.sol",
  "compiler": {
    "name": "solc",
    "version": "0.8.10+commit.fc410830.Emscripten.clang"
  },
  "schemaVersion": "3.4.3",
  "updatedAt": "2022-01-04T00:21:09.303Z",
  "networkType": "ethereum",
  "devdoc": {
    "kind": "dev",
    "methods": {},
    "version": 1
  },
  "userdoc": {
    "kind": "user",
    "methods": {},
    "version": 1
  }
}