{
  "contractName": "CovidSupplyChain",
  "abi": [
    {
      "inputs": [],
      "stateMutability": "nonpayable",
      "type": "constructor"
    },
    {
      "anonymous": false,
      "inputs": [
        {
          "indexed": false,
          "internalType": "address",
          "name": "id",
          "type": "address"
        },
        {
          "indexed": false,
          "internalType": "string",
          "name": "name",
          "type": "string"
        },
        {
          "indexed": false,
          "internalType": "enum CovidSupplyChain.ActorRoles",
          "name": "role",
          "type": "uint8"
        }
      ],
      "name": "AddActor",
      "type": "event"
    },
    {
      "anonymous": false,
      "inputs": [
        {
          "indexed": false,
          "internalType": "uint256",
          "name": "id",
          "type": "uint256"
        },
        {
          "indexed": false,
          "internalType": "address",
          "name": "manufacturer",
          "type": "address"
        },
        {
          "indexed": false,
          "internalType": "uint256",
          "name": "date",
          "type": "uint256"
        }
      ],
      "name": "AddBatch",
      "type": "event"
    },
    {
      "anonymous": false,
      "inputs": [
        {
          "indexed": false,
          "internalType": "uint256",
          "name": "id",
          "type": "uint256"
        },
        {
          "indexed": false,
          "internalType": "enum CovidSupplyChain.BatchStatus",
          "name": "status",
          "type": "uint8"
        },
        {
          "indexed": false,
          "internalType": "address",
          "name": "actor",
          "type": "address"
        },
        {
          "indexed": false,
          "internalType": "uint256",
          "name": "date",
          "type": "uint256"
        }
      ],
      "name": "UpdateStatus",
      "type": "event"
    },
    {
      "inputs": [
        {
          "internalType": "address",
          "name": "_add",
          "type": "address"
        },
        {
          "internalType": "string",
          "name": "_name",
          "type": "string"
        },
        {
          "internalType": "uint256",
          "name": "_role",
          "type": "uint256"
        }
      ],
      "name": "addActor",
      "outputs": [],
      "stateMutability": "nonpayable",
      "type": "function"
    },
    {
      "inputs": [
        {
          "internalType": "address",
          "name": "_actor",
          "type": "address"
        }
      ],
      "name": "getActor",
      "outputs": [
        {
          "internalType": "address",
          "name": "",
          "type": "address"
        },
        {
          "internalType": "string",
          "name": "",
          "type": "string"
        },
        {
          "internalType": "uint256",
          "name": "",
          "type": "uint256"
        }
      ],
      "stateMutability": "view",
      "type": "function",
      "constant": true
    },
    {
      "inputs": [
        {
          "internalType": "int32",
          "name": "temp",
          "type": "int32"
        },
        {
          "internalType": "uint32",
          "name": "size",
          "type": "uint32"
        }
      ],
      "name": "addBatch",
      "outputs": [],
      "stateMutability": "nonpayable",
      "type": "function"
    },
    {
      "inputs": [
        {
          "internalType": "uint256",
          "name": "_batch",
          "type": "uint256"
        }
      ],
      "name": "updateStatus",
      "outputs": [],
      "stateMutability": "nonpayable",
      "type": "function"
    },
    {
      "inputs": [
        {
          "internalType": "uint256",
          "name": "id",
          "type": "uint256"
        }
      ],
      "name": "getTimeline",
      "outputs": [
        {
          "internalType": "uint32",
          "name": "",
          "type": "uint32"
        },
        {
          "internalType": "int32",
          "name": "",
          "type": "int32"
        },
        {
          "internalType": "address[]",
          "name": "",
          "type": "address[]"
        },
        {
          "internalType": "uint256[]",
          "name": "",
          "type": "uint256[]"
        },
        {
          "internalType": "string[]",
          "name": "",
          "type": "string[]"
        },
        {
          "internalType": "uint256[]",
          "name": "",
          "type": "uint256[]"
        }
      ],
      "stateMutability": "view",
      "type": "function",
      "constant": true
    },
    {
      "inputs": [
        {
          "internalType": "uint256",
          "name": "n",
          "type": "uint256"
        },
        {
          "internalType": "address",
          "name": "actor",
          "type": "address"
        }
      ],
      "name": "getMyLastNBatch",
      "outputs": [
        {
          "internalType": "uint256[]",
          "name": "",
          "type": "uint256[]"
        },
        {
          "internalType": "uint256[]",
          "name": "",
          "type": "uint256[]"
        },
        {
          "internalType": "uint32[]",
          "name": "",
          "type": "uint32[]"
        },
        {
          "internalType": "int32[]",
          "name": "",
          "type": "int32[]"
        }
      ],
      "stateMutability": "view",
      "type": "function",
      "constant": true
    }
  ],
  "bytecode": "0x60806040523480156200001157600080fd5b5060405180606001604052803373ffffffffffffffffffffffffffffffffffffffff1681526020016040518060400160405280600b81526020017f4f776e65722041646d696e00000000000000000000000000000000000000000081525081526020016005808111156200008a576200008962000362565b5b60058111156200009f576200009e62000362565b5b815250600160003373ffffffffffffffffffffffffffffffffffffffff1673ffffffffffffffffffffffffffffffffffffffff16815260200190815260200160002060008201518160000160006101000a81548173ffffffffffffffffffffffffffffffffffffffff021916908373ffffffffffffffffffffffffffffffffffffffff160217905550602082015181600101908051906020019062000146929190620002b2565b5060408201518160020160006101000a81548160ff0219169083600581111562000175576200017462000362565b5b02179055509050507fb71debf70cec3c02b431cb292f0372461e9003917952bbd71fc05239f012177e600160003373ffffffffffffffffffffffffffffffffffffffff1673ffffffffffffffffffffffffffffffffffffffff16815260200190815260200160002060000160009054906101000a900473ffffffffffffffffffffffffffffffffffffffff16600160003373ffffffffffffffffffffffffffffffffffffffff1673ffffffffffffffffffffffffffffffffffffffff168152602001908152602001600020600101600160003373ffffffffffffffffffffffffffffffffffffffff1673ffffffffffffffffffffffffffffffffffffffff16815260200190815260200160002060020160009054906101000a900460ff16604051620002a4939291906200053e565b60405180910390a162000582565b828054620002c09062000405565b90600052602060002090601f016020900481019282620002e4576000855562000330565b82601f10620002ff57805160ff191683800117855562000330565b8280016001018555821562000330579182015b828111156200032f57825182559160200191906001019062000312565b5b5090506200033f919062000343565b5090565b5b808211156200035e57600081600090555060010162000344565b5090565b7f4e487b7100000000000000000000000000000000000000000000000000000000600052602160045260246000fd5b600073ffffffffffffffffffffffffffffffffffffffff82169050919050565b6000620003be8262000391565b9050919050565b620003d081620003b1565b82525050565b7f4e487b7100000000000000000000000000000000000000000000000000000000600052602260045260246000fd5b600060028204905060018216806200041e57607f821691505b60208210811415620004355762000434620003d6565b5b50919050565b600082825260208201905092915050565b60008190508160005260206000209050919050565b60008154620004708162000405565b6200047c81866200043b565b945060018216600081146200049a5760018114620004ad57620004e4565b60ff1983168652602086019350620004e4565b620004b8856200044c565b60005b83811015620004dc57815481890152600182019150602081019050620004bb565b808801955050505b50505092915050565b6006811062000501576200050062000362565b5b50565b60008190506200051482620004ed565b919050565b6000620005268262000504565b9050919050565b620005388162000519565b82525050565b6000606082019050620005556000830186620003c5565b818103602083015262000569818562000461565b90506200057a60408301846200052d565b949350505050565b612b5280620005926000396000f3fe608060405234801561001057600080fd5b50600436106100625760003560e01c80631ab5f03b146100675780634138d1671461009c5780635a8f8ddb146100ce5780636c487bdf146100ea578063d61e72011461011d578063fc44ec9714610139575b600080fd5b610081600480360381019061007c9190611b3b565b610155565b60405161009396959493929190611eac565b60405180910390f35b6100b660048036038101906100b19190611f55565b610558565b6040516100c593929190611fea565b60405180910390f35b6100e860048036038101906100e39190612080565b6106fe565b005b61010460048036038101906100ff91906120c0565b610b4a565b604051610114949392919061227c565b60405180910390f35b61013760048036038101906101329190611b3b565b610f39565b005b610153600480360381019061014e9190612412565b61170e565b005b600080606080606080600080888154811061017357610172612481565b5b90600052602060002090600302016040518060800160405290816000820160009054906101000a900463ffffffff1663ffffffff1663ffffffff1681526020016000820160049054906101000a900460030b60030b60030b81526020016001820180548060200260200160405190810160405280929190818152602001828054801561025457602002820191906000526020600020905b8160009054906101000a900473ffffffffffffffffffffffffffffffffffffffff1673ffffffffffffffffffffffffffffffffffffffff168152602001906001019080831161020a575b50505050508152602001600282018054806020026020016040519081016040528092919081815260200182805480156102ac57602002820191906000526020600020905b815481526020019060010190808311610298575b5050505050815250509050600081604001515167ffffffffffffffff8111156102d8576102d76122e7565b5b60405190808252806020026020018201604052801561030b57816020015b60608152602001906001900390816102f65790505b509050600082604001515167ffffffffffffffff81111561032f5761032e6122e7565b5b60405190808252806020026020018201604052801561035d5781602001602082028036833780820191505090505b50905060005b83604001515181101561052957600160008560400151838151811061038b5761038a612481565b5b602002602001015173ffffffffffffffffffffffffffffffffffffffff1673ffffffffffffffffffffffffffffffffffffffff16815260200190815260200160002060010180546103db906124df565b80601f0160208091040260200160405190810160405280929190818152602001828054610407906124df565b80156104545780601f1061042957610100808354040283529160200191610454565b820191906000526020600020905b81548152906001019060200180831161043757829003601f168201915b505050505083828151811061046c5761046b612481565b5b6020026020010181905250600160008560400151838151811061049257610491612481565b5b602002602001015173ffffffffffffffffffffffffffffffffffffffff1673ffffffffffffffffffffffffffffffffffffffff16815260200190815260200160002060020160009054906101000a900460ff1660058111156104f7576104f6612511565b5b82828151811061050a57610509612481565b5b60200260200101818152505080806105219061256f565b915050610363565b508260000151836020015184604001518560600151858598509850985098509850985050505091939550919395565b600060606000600160008573ffffffffffffffffffffffffffffffffffffffff1673ffffffffffffffffffffffffffffffffffffffff16815260200190815260200160002060000160009054906101000a900473ffffffffffffffffffffffffffffffffffffffff16600160008673ffffffffffffffffffffffffffffffffffffffff1673ffffffffffffffffffffffffffffffffffffffff168152602001908152602001600020600101600160008773ffffffffffffffffffffffffffffffffffffffff1673ffffffffffffffffffffffffffffffffffffffff16815260200190815260200160002060020160009054906101000a900460ff16600581111561066557610664612511565b5b818054610671906124df565b80601f016020809104026020016040519081016040528092919081815260200182805461069d906124df565b80156106ea5780601f106106bf576101008083540402835291602001916106ea565b820191906000526020600020905b8154815290600101906020018083116106cd57829003601f168201915b505050505091509250925092509193909250565b6000600581111561071257610711612511565b5b600160003373ffffffffffffffffffffffffffffffffffffffff1673ffffffffffffffffffffffffffffffffffffffff16815260200190815260200160002060020160009054906101000a900460ff16600581111561077457610773612511565b5b146107b4576040517f08c379a00000000000000000000000000000000000000000000000000000000081526004016107ab90612604565b60405180910390fd5b60004290506107c1611946565b83816020019060030b908160030b8152505082816000019063ffffffff16908163ffffffff1681525050600167ffffffffffffffff811115610806576108056122e7565b5b6040519080825280602002602001820160405280156108345781602001602082028036833780820191505090505b508160400181905250600167ffffffffffffffff811115610858576108576122e7565b5b6040519080825280602002602001820160405280156108865781602001602082028036833780820191505090505b508160600181905250600081908060018154018082558091505060019003906000526020600020906003020160009091909190915060008201518160000160006101000a81548163ffffffff021916908363ffffffff16021790555060208201518160000160046101000a81548163ffffffff021916908360030b63ffffffff1602179055506040820151816001019080519060200190610928929190611977565b506060820151816002019080519060200190610945929190611a01565b505050336000600160008054905061095d9190612624565b8154811061096e5761096d612481565b5b906000526020600020906003020160010160008154811061099257610991612481565b5b9060005260206000200160006101000a81548173ffffffffffffffffffffffffffffffffffffffff021916908373ffffffffffffffffffffffffffffffffffffffff16021790555081600060016000805490506109ef9190612624565b81548110610a00576109ff612481565b5b9060005260206000209060030201600201600081548110610a2457610a23612481565b5b90600052602060002001819055507f9152d61727e6803b1ecc99be15a3545cb0e2e75656a1d3d603d54bbc9d614c5e6001600080549050610a659190612624565b60006001600080549050610a799190612624565b81548110610a8a57610a89612481565b5b9060005260206000209060030201600101600081548110610aae57610aad612481565b5b9060005260206000200160009054906101000a900473ffffffffffffffffffffffffffffffffffffffff1660006001600080549050610aed9190612624565b81548110610afe57610afd612481565b5b9060005260206000209060030201600201600081548110610b2257610b21612481565b5b9060005260206000200154604051610b3c93929190612658565b60405180910390a150505050565b606080606080600086118015610b605750600586105b610b9f576040517f08c379a0000000000000000000000000000000000000000000000000000000008152600401610b96906126db565b60405180910390fd5b60008667ffffffffffffffff811115610bbb57610bba6122e7565b5b604051908082528060200260200182016040528015610be95781602001602082028036833780820191505090505b50905060008767ffffffffffffffff811115610c0857610c076122e7565b5b604051908082528060200260200182016040528015610c365781602001602082028036833780820191505090505b50905060008867ffffffffffffffff811115610c5557610c546122e7565b5b604051908082528060200260200182016040528015610c835781602001602082028036833780820191505090505b50905060008967ffffffffffffffff811115610ca257610ca16122e7565b5b604051908082528060200260200182016040528015610cd05781602001602082028036833780820191505090505b509050600080808054905090505b6000811115610f1e57600060016000600184610cfa9190612624565b81548110610d0b57610d0a612481565b5b906000526020600020906003020160010180549050610d2a9190612624565b90508b73ffffffffffffffffffffffffffffffffffffffff166000600184610d529190612624565b81548110610d6357610d62612481565b5b90600052602060002090600302016001018281548110610d8657610d85612481565b5b9060005260206000200160009054906101000a900473ffffffffffffffffffffffffffffffffffffffff1673ffffffffffffffffffffffffffffffffffffffff161415610f0a57600182610dda9190612624565b878481518110610ded57610dec612481565b5b60200260200101818152505080868481518110610e0d57610e0c612481565b5b6020026020010181815250506000600183610e289190612624565b81548110610e3957610e38612481565b5b906000526020600020906003020160000160049054906101000a900460030b858481518110610e6b57610e6a612481565b5b602002602001019060030b908160030b815250506000600183610e8e9190612624565b81548110610e9f57610e9e612481565b5b906000526020600020906003020160000160009054906101000a900463ffffffff16848481518110610ed457610ed3612481565b5b602002602001019063ffffffff16908163ffffffff16815250508280610ef99061256f565b9350508c8310610f095750610f1e565b5b508080610f16906126fb565b915050610cde565b50848483859850985098509850505050505092959194509250565b6000808281548110610f4e57610f4d612481565b5b906000526020600020906003020190506000600160003373ffffffffffffffffffffffffffffffffffffffff1673ffffffffffffffffffffffffffffffffffffffff1681526020019081526020016000206040518060600160405290816000820160009054906101000a900473ffffffffffffffffffffffffffffffffffffffff1673ffffffffffffffffffffffffffffffffffffffff1673ffffffffffffffffffffffffffffffffffffffff168152602001600182018054611010906124df565b80601f016020809104026020016040519081016040528092919081815260200182805461103c906124df565b80156110895780601f1061105e57610100808354040283529160200191611089565b820191906000526020600020905b81548152906001019060200180831161106c57829003601f168201915b505050505081526020016002820160009054906101000a900460ff1660058111156110b7576110b6612511565b5b60058111156110c9576110c8612511565b5b8152505090506000600183600101805490506110e59190612624565b60078111156110f7576110f6612511565b5b90506000600781111561110d5761110c612511565b5b8160078111156111205761111f612511565b5b1415611196576001600581111561113a57611139612511565b5b8260400151600581111561115157611150612511565b5b14611191576040517f08c379a000000000000000000000000000000000000000000000000000000000815260040161118890612771565b60405180910390fd5b611607565b600160078111156111aa576111a9612511565b5b8160078111156111bd576111bc612511565b5b141561123357600260058111156111d7576111d6612511565b5b826040015160058111156111ee576111ed612511565b5b1461122e576040517f08c379a000000000000000000000000000000000000000000000000000000000815260040161122590612803565b60405180910390fd5b611606565b6002600781111561124757611246612511565b5b81600781111561125a57611259612511565b5b14156112d0576001600581111561127457611273612511565b5b8260400151600581111561128b5761128a612511565b5b146112cb576040517f08c379a00000000000000000000000000000000000000000000000000000000081526004016112c290612771565b60405180910390fd5b611605565b600360078111156112e4576112e3612511565b5b8160078111156112f7576112f6612511565b5b141561136d576003600581111561131157611310612511565b5b8260400151600581111561132857611327612511565b5b14611368576040517f08c379a000000000000000000000000000000000000000000000000000000000815260040161135f90612895565b60405180910390fd5b611604565b6004600781111561138157611380612511565b5b81600781111561139457611393612511565b5b141561140a57600160058111156113ae576113ad612511565b5b826040015160058111156113c5576113c4612511565b5b14611405576040517f08c379a00000000000000000000000000000000000000000000000000000000081526004016113fc90612771565b60405180910390fd5b611603565b6005600781111561141e5761141d612511565b5b81600781111561143157611430612511565b5b14156114a7576004600581111561144b5761144a612511565b5b8260400151600581111561146257611461612511565b5b146114a2576040517f08c379a000000000000000000000000000000000000000000000000000000000815260040161149990612901565b60405180910390fd5b611602565b600660078111156114bb576114ba612511565b5b8160078111156114ce576114cd612511565b5b141561160157600460058111156114e8576114e7612511565b5b826040015160058111156114ff576114fe612511565b5b1461153f576040517f08c379a000000000000000000000000000000000000000000000000000000000815260040161153690612901565b60405180910390fd5b82600101600184600101805490506115579190612624565b8154811061156857611567612481565b5b9060005260206000200160009054906101000a900473ffffffffffffffffffffffffffffffffffffffff1673ffffffffffffffffffffffffffffffffffffffff163373ffffffffffffffffffffffffffffffffffffffff1614611600576040517f08c379a00000000000000000000000000000000000000000000000000000000081526004016115f790612993565b60405180910390fd5b5b5b5b5b5b5b5b8260020142908060018154018082558091505060019003906000526020600020016000909190919091505582600101339080600181540180825580915050600190039060005260206000200160009091909190916101000a81548173ffffffffffffffffffffffffffffffffffffffff021916908373ffffffffffffffffffffffffffffffffffffffff1602179055507f6c2699b741ecbf666c39c2dd5ca8bea7feccbbd96846a390bec260b9ab72121b8460018360078111156116ce576116cd612511565b5b6116d891906129b3565b60078111156116ea576116e9612511565b5b8460000151426040516117009493929190612a51565b60405180910390a150505050565b60058081111561172157611720612511565b5b600160003373ffffffffffffffffffffffffffffffffffffffff1673ffffffffffffffffffffffffffffffffffffffff16815260200190815260200160002060020160009054906101000a900460ff16600581111561178357611782612511565b5b146117c3576040517f08c379a00000000000000000000000000000000000000000000000000000000081526004016117ba90612604565b60405180910390fd5b60008160058111156117d8576117d7612511565b5b9050600060405180606001604052808673ffffffffffffffffffffffffffffffffffffffff16815260200185815260200183600581111561181c5761181b612511565b5b815250905080600160008773ffffffffffffffffffffffffffffffffffffffff1673ffffffffffffffffffffffffffffffffffffffff16815260200190815260200160002060008201518160000160006101000a81548173ffffffffffffffffffffffffffffffffffffffff021916908373ffffffffffffffffffffffffffffffffffffffff16021790555060208201518160010190805190602001906118c4929190611a4e565b5060408201518160020160006101000a81548160ff021916908360058111156118f0576118ef612511565b5b02179055509050507fb71debf70cec3c02b431cb292f0372461e9003917952bbd71fc05239f012177e81600001518260200151836040015160405161193793929190612ade565b60405180910390a15050505050565b6040518060800160405280600063ffffffff168152602001600060030b815260200160608152602001606081525090565b8280548282559060005260206000209081019282156119f0579160200282015b828111156119ef5782518260006101000a81548173ffffffffffffffffffffffffffffffffffffffff021916908373ffffffffffffffffffffffffffffffffffffffff16021790555091602001919060010190611997565b5b5090506119fd9190611ad4565b5090565b828054828255906000526020600020908101928215611a3d579160200282015b82811115611a3c578251825591602001919060010190611a21565b5b509050611a4a9190611ad4565b5090565b828054611a5a906124df565b90600052602060002090601f016020900481019282611a7c5760008555611ac3565b82601f10611a9557805160ff1916838001178555611ac3565b82800160010185558215611ac3579182015b82811115611ac2578251825591602001919060010190611aa7565b5b509050611ad09190611ad4565b5090565b5b80821115611aed576000816000905550600101611ad5565b5090565b6000604051905090565b600080fd5b600080fd5b6000819050919050565b611b1881611b05565b8114611b2357600080fd5b50565b600081359050611b3581611b0f565b92915050565b600060208284031215611b5157611b50611afb565b5b6000611b5f84828501611b26565b91505092915050565b600063ffffffff82169050919050565b611b8181611b68565b82525050565b60008160030b9050919050565b611b9d81611b87565b82525050565b600081519050919050565b600082825260208201905092915050565b6000819050602082019050919050565b600073ffffffffffffffffffffffffffffffffffffffff82169050919050565b6000611bfa82611bcf565b9050919050565b611c0a81611bef565b82525050565b6000611c1c8383611c01565b60208301905092915050565b6000602082019050919050565b6000611c4082611ba3565b611c4a8185611bae565b9350611c5583611bbf565b8060005b83811015611c86578151611c6d8882611c10565b9750611c7883611c28565b925050600181019050611c59565b5085935050505092915050565b600081519050919050565b600082825260208201905092915050565b6000819050602082019050919050565b611cc881611b05565b82525050565b6000611cda8383611cbf565b60208301905092915050565b6000602082019050919050565b6000611cfe82611c93565b611d088185611c9e565b9350611d1383611caf565b8060005b83811015611d44578151611d2b8882611cce565b9750611d3683611ce6565b925050600181019050611d17565b5085935050505092915050565b600081519050919050565b600082825260208201905092915050565b6000819050602082019050919050565b600081519050919050565b600082825260208201905092915050565b60005b83811015611db7578082015181840152602081019050611d9c565b83811115611dc6576000848401525b50505050565b6000601f19601f8301169050919050565b6000611de882611d7d565b611df28185611d88565b9350611e02818560208601611d99565b611e0b81611dcc565b840191505092915050565b6000611e228383611ddd565b905092915050565b6000602082019050919050565b6000611e4282611d51565b611e4c8185611d5c565b935083602082028501611e5e85611d6d565b8060005b85811015611e9a5784840389528151611e7b8582611e16565b9450611e8683611e2a565b925060208a01995050600181019050611e62565b50829750879550505050505092915050565b600060c082019050611ec16000830189611b78565b611ece6020830188611b94565b8181036040830152611ee08187611c35565b90508181036060830152611ef48186611cf3565b90508181036080830152611f088185611e37565b905081810360a0830152611f1c8184611cf3565b9050979650505050505050565b611f3281611bef565b8114611f3d57600080fd5b50565b600081359050611f4f81611f29565b92915050565b600060208284031215611f6b57611f6a611afb565b5b6000611f7984828501611f40565b91505092915050565b611f8b81611bef565b82525050565b600082825260208201905092915050565b6000611fad82611d7d565b611fb78185611f91565b9350611fc7818560208601611d99565b611fd081611dcc565b840191505092915050565b611fe481611b05565b82525050565b6000606082019050611fff6000830186611f82565b81810360208301526120118185611fa2565b90506120206040830184611fdb565b949350505050565b61203181611b87565b811461203c57600080fd5b50565b60008135905061204e81612028565b92915050565b61205d81611b68565b811461206857600080fd5b50565b60008135905061207a81612054565b92915050565b6000806040838503121561209757612096611afb565b5b60006120a58582860161203f565b92505060206120b68582860161206b565b9150509250929050565b600080604083850312156120d7576120d6611afb565b5b60006120e585828601611b26565b92505060206120f685828601611f40565b9150509250929050565b600081519050919050565b600082825260208201905092915050565b6000819050602082019050919050565b61213581611b68565b82525050565b6000612147838361212c565b60208301905092915050565b6000602082019050919050565b600061216b82612100565b612175818561210b565b93506121808361211c565b8060005b838110156121b1578151612198888261213b565b97506121a383612153565b925050600181019050612184565b5085935050505092915050565b600081519050919050565b600082825260208201905092915050565b6000819050602082019050919050565b6121f381611b87565b82525050565b600061220583836121ea565b60208301905092915050565b6000602082019050919050565b6000612229826121be565b61223381856121c9565b935061223e836121da565b8060005b8381101561226f57815161225688826121f9565b975061226183612211565b925050600181019050612242565b5085935050505092915050565b600060808201905081810360008301526122968187611cf3565b905081810360208301526122aa8186611cf3565b905081810360408301526122be8185612160565b905081810360608301526122d2818461221e565b905095945050505050565b600080fd5b600080fd5b7f4e487b7100000000000000000000000000000000000000000000000000000000600052604160045260246000fd5b61231f82611dcc565b810181811067ffffffffffffffff8211171561233e5761233d6122e7565b5b80604052505050565b6000612351611af1565b905061235d8282612316565b919050565b600067ffffffffffffffff82111561237d5761237c6122e7565b5b61238682611dcc565b9050602081019050919050565b82818337600083830152505050565b60006123b56123b084612362565b612347565b9050828152602081018484840111156123d1576123d06122e2565b5b6123dc848285612393565b509392505050565b600082601f8301126123f9576123f86122dd565b5b81356124098482602086016123a2565b91505092915050565b60008060006060848603121561242b5761242a611afb565b5b600061243986828701611f40565b935050602084013567ffffffffffffffff81111561245a57612459611b00565b5b612466868287016123e4565b925050604061247786828701611b26565b9150509250925092565b7f4e487b7100000000000000000000000000000000000000000000000000000000600052603260045260246000fd5b7f4e487b7100000000000000000000000000000000000000000000000000000000600052602260045260246000fd5b600060028204905060018216806124f757607f821691505b6020821081141561250b5761250a6124b0565b5b50919050565b7f4e487b7100000000000000000000000000000000000000000000000000000000600052602160045260246000fd5b7f4e487b7100000000000000000000000000000000000000000000000000000000600052601160045260246000fd5b600061257a82611b05565b91507fffffffffffffffffffffffffffffffffffffffffffffffffffffffffffffffff8214156125ad576125ac612540565b5b600182019050919050565b7f596f7520617265206e6f7420616c6c6f77656400000000000000000000000000600082015250565b60006125ee601383611f91565b91506125f9826125b8565b602082019050919050565b6000602082019050818103600083015261261d816125e1565b9050919050565b600061262f82611b05565b915061263a83611b05565b92508282101561264d5761264c612540565b5b828203905092915050565b600060608201905061266d6000830186611fdb565b61267a6020830185611f82565b6126876040830184611fdb565b949350505050565b7f506172616d65746572206e206e6f742076616c69642100000000000000000000600082015250565b60006126c5601683611f91565b91506126d08261268f565b602082019050919050565b600060208201905081810360008301526126f4816126b8565b9050919050565b600061270682611b05565b9150600082141561271a57612719612540565b5b600182039050919050565b7f796f7520617265206e6f74206120636f75726965722100000000000000000000600082015250565b600061275b601683611f91565b915061276682612725565b602082019050919050565b6000602082019050818103600083015261278a8161274e565b9050919050565b7f796f7520617265206e6f742061206e6174696f6e616c20666163696c6974696560008201527f7320776f726b6572210000000000000000000000000000000000000000000000602082015250565b60006127ed602983611f91565b91506127f882612791565b604082019050919050565b6000602082019050818103600083015261281c816127e0565b9050919050565b7f796f7520617265206e6f74206120726567696f6e616c20666163696c6974696560008201527f7320776f726b6572210000000000000000000000000000000000000000000000602082015250565b600061287f602983611f91565b915061288a82612823565b604082019050919050565b600060208201905081810360008301526128ae81612872565b9050919050565b7f796f7520617265206e6f7420616e2068756220776f726b657221000000000000600082015250565b60006128eb601a83611f91565b91506128f6826128b5565b602082019050919050565b6000602082019050818103600083015261291a816128de565b9050919050565b7f546869732062617463682069732073746f72656420696e20616e6f746865722060008201527f4875622e00000000000000000000000000000000000000000000000000000000602082015250565b600061297d602483611f91565b915061298882612921565b604082019050919050565b600060208201905081810360008301526129ac81612970565b9050919050565b60006129be82611b05565b91506129c983611b05565b9250827fffffffffffffffffffffffffffffffffffffffffffffffffffffffffffffffff038211156129fe576129fd612540565b5b828201905092915050565b60088110612a1a57612a19612511565b5b50565b6000819050612a2b82612a09565b919050565b6000612a3b82612a1d565b9050919050565b612a4b81612a30565b82525050565b6000608082019050612a666000830187611fdb565b612a736020830186612a42565b612a806040830185611f82565b612a8d6060830184611fdb565b95945050505050565b60068110612aa757612aa6612511565b5b50565b6000819050612ab882612a96565b919050565b6000612ac882612aaa565b9050919050565b612ad881612abd565b82525050565b6000606082019050612af36000830186611f82565b8181036020830152612b058185611fa2565b9050612b146040830184612acf565b94935050505056fea264697066735822122044c75ec95d5a9f9472ee1495cac16b845fc730417e8f9dc520f52010457dab0864736f6c634300080a0033",
  "immutableReferences": {},
  "source": "// SPDX-License-Identifier: CC-BY-SA-4.0\npragma solidity >=0.7.0 <0.9.0;\n\n\n/// @title Supply Chain contract for Covid-19 Vaccine Batch\n/// @notice It provides data-field to store logs, function to insert and correctly manipulate data, and it allow safe interaction within actors.\ncontract CovidSupplyChain {\n\n    // Enums for  Batch Status  the Actor Roles\n    // 1. Batch Status follows a subsequent order, the batch status can't go back back, but only forward. (from MANUFACTURED to USED)\n    // 2. Each actor has to have a 1 Role on chain, otherwise it cannot send write transaction. \n    enum BatchStatus { MANUFACTURED, DELIVER_NATIONAL, STORED_NATIONAL, DELIVER_REGIONAL, STORED_REGIONAL, DELIVER_HUB, STORED_HUB, USED}\n    enum ActorRoles  { MANUFACTURER, COURIER, NATIONAL_FACILITIES, REGIONAL_FACILITIES, VAX_HUB, ADMIN}\n\n    // Actor definition (e.g. [0x08.., 'Pzifer', MANUFACTURER])\n    struct Actor\n    {\n        address id;          // address of the actor   \n        string name;         // string name of the actor\n        ActorRoles role;     // role of the actor on chain\n    }\n\n    // Vaccine Batch definition (e.g. [1028, -20, [0x04.., ..], [11/08/2021, ..]])\n    struct VaccineBatch \n    {\n        uint32 size;                // size of the batch\n        int32 temp;                 // temperature to stock the batch\n        address[] chain_actors;     // list of actors addresses who change the status (no need to store directly the status, since it can be easily retrieved)\n        uint256[] chain_dates;      // timestamp of status changes\n    }\n\n\n    // Private representation of current batches and actors.\n    VaccineBatch[] batches;\n    mapping (address => Actor) actors;\n\n\n    // Event of the contract\n    event AddActor (address id, string name, ActorRoles role);\n    event AddBatch (uint id, address manufacturer, uint date);\n    event UpdateStatus (uint id, BatchStatus status, address actor, uint date);\n\n\n    // Constructor is called on deployment\n    constructor() {\n        // Owner is the 'Main' Administrator.\n        actors[msg.sender] = Actor(msg.sender, \"Owner Admin\", ActorRoles(5));\n        emit AddActor(actors[msg.sender].id, actors[msg.sender].name, actors[msg.sender].role);\n    }\n\n\n    // Some function can be executed only by admin\n    modifier onlyAdmin() {\n        require(actors[msg.sender].role == ActorRoles.ADMIN, \"You are not allowed\");\n        _;\n    }\n\n    // Some function can be executed only by the manufacturer\n    modifier onlyManufacturer() {\n        require(actors[msg.sender].role == ActorRoles.MANUFACTURER, \"You are not allowed\");\n        _;\n    }\n\n\n    /// @notice Add an actor on chain\n    /// @dev Emit an event and can be exectued only by admin\n    /// @param _add Address of the new actor\n    /// @param _name Name of the new actor\n    /// @param _role Role of the new actor\n    function addActor (address _add, string memory _name, uint _role) public onlyAdmin\n    {\n        ActorRoles role =  ActorRoles(_role);\n        Actor memory member = Actor(_add, _name, role);\n        actors[_add] = member;\n        emit AddActor(member.id, member.name, member.role);\n    }\n\n\n    /// @notice Retrieve an actor on chain\n    /// @dev The actor can not exist\n    /// @param _actor Address of the actor\n    /// @return Actor address, Actor Name, Actor Role\n    function getActor (address _actor) public view returns ( address, string memory,  uint)\n    {\n        return (actors[_actor].id, actors[_actor].name, uint(actors[_actor].role)) ;\n    }\n\n\n    /// @notice Add a new Vaccine batch on chain\n    /// @dev The first batch state is MANUFACTURED, only MANUFATURER can call this function. Emit an event.\n    /// @param temp The temperature to correctly stock the batch\n    /// @param size The size of the batch\n    function addBatch (int32 temp, uint32 size) public onlyManufacturer\n    {\n        uint256 date = block.timestamp;\n\n        VaccineBatch memory lastBatch;\n        lastBatch.temp = temp;\n        lastBatch.size = size;\n        lastBatch.chain_actors = new address[](1);\n        lastBatch.chain_dates = new uint[](1);\n        batches.push(lastBatch);\n\n        batches[batches.length-1].chain_actors[0] = msg.sender;\n        batches[batches.length-1].chain_dates[0] = date;\n\n        emit AddBatch(batches.length-1, batches[batches.length-1].chain_actors[0], batches[batches.length-1].chain_dates[0]);\n    }\n\n\n    /// @notice Update the status of a batch on the supply chain\n    /// @dev New status is automatically recognized, only allowed actor can update from a certain status.\n    /// @param _batch the batch id.\n    function updateStatus (uint _batch) public\n    {\n        VaccineBatch storage batch = batches[_batch];\n        Actor memory actor = actors[msg.sender];\n        BatchStatus status = BatchStatus(batch.chain_actors.length-1);\n\n        if (status == BatchStatus.MANUFACTURED) {\n            require(actor.role == ActorRoles.COURIER, \"you are not a courier!\");\n        }\n        else if (status == BatchStatus.DELIVER_NATIONAL) {\n            require(actor.role == ActorRoles.NATIONAL_FACILITIES, \"you are not a national facilities worker!\");\n        }\n        else if (status == BatchStatus.STORED_NATIONAL) {\n            require(actor.role == ActorRoles.COURIER, \"you are not a courier!\");\n        }\n        else if (status == BatchStatus.DELIVER_REGIONAL) {\n            require(actor.role == ActorRoles.REGIONAL_FACILITIES, \"you are not a regional facilities worker!\");\n        }\n        else if (status == BatchStatus.STORED_REGIONAL) {\n            require(actor.role == ActorRoles.COURIER, \"you are not a courier!\");\n        }\n        else if (status == BatchStatus.DELIVER_HUB) {\n            require(actor.role == ActorRoles.VAX_HUB, \"you are not an hub worker!\");\n        }\n        else if (status == BatchStatus.STORED_HUB) {\n            require(actor.role == ActorRoles.VAX_HUB, \"you are not an hub worker!\");\n            require(msg.sender == batch.chain_actors[batch.chain_actors.length-1], \"This batch is stored in another Hub.\");\n        }\n\n        batch.chain_dates.push(block.timestamp);\n        batch.chain_actors.push(msg.sender);\n\n        emit UpdateStatus (_batch, BatchStatus(uint(status)+1), actor.id, block.timestamp);\n    } \n\n\n    /// @notice Retrieve the history of a batch on the supply chain.\n    /// @param id The identifier of the batch\n    /// @return Size, Temperature, Array of: actor addresses, timestamp of updates, actor names, actor roles.\n    function getTimeline (uint id) public view returns ( uint32, int32, address[] memory, uint256[] memory, string[] memory, uint[] memory)\n    {\n        VaccineBatch memory batch = batches[id];\n\n        string[] memory chain_names = new string[](batch.chain_actors.length);\n        uint[] memory chain_roles = new uint[](batch.chain_actors.length);\n\n        for (uint i = 0; i < batch.chain_actors.length; i++) { \n            chain_names[i] = actors[batch.chain_actors[i]].name;\n            chain_roles[i] = uint(actors[batch.chain_actors[i]].role);\n        }\n\n        return (batch.size, batch.temp, batch.chain_actors, batch.chain_dates, chain_names, chain_roles) ;\n    }\n\n\n    /// @notice Retrieve the last n batch recently updated by a given actor.\n    /// @param n the max number of batches to return \n    /// @param actor Address of the actor\n    /// @return arrays with summary info about that batches.\n    function getMyLastNBatch (uint n, address actor) public view returns ( uint256[] memory, uint256[] memory, uint32[] memory, int32[] memory)\n    {\n        require( n>0 && n<5, \"Parameter n not valid!\" );\n\n        uint[] memory ids = new uint[](n);\n        uint[] memory status = new uint[](n);\n        int32[] memory temps = new int32[](n);\n        uint32[] memory sizes = new uint32[](n);\n\n        uint k = 0;\n\n        for (uint i = batches.length; i > 0; i--) {\n            uint j = batches[i-1].chain_actors.length-1;\n            if(batches[i-1].chain_actors[j] == actor)\n            {\n                ids[k] = i-1;\n                status[k] = j;\n                temps[k] = batches[i-1].temp;\n                sizes[k] = batches[i-1].size;\n                k++;\n                if (k >= n){break;}\n            }\n        }\n        return (ids,status,sizes,temps) ;\n    }\n\n}",
  "sourcePath": "/home/andrea/Scrivania/AFC/progetto-BC/back-end/contracts/CovidSupplyChain.sol",
  "compiler": {
    "name": "solc",
    "version": "0.8.10+commit.fc410830.Emscripten.clang"
  },
  "schemaVersion": "3.4.3",
  "updatedAt": "2022-02-16T15:41:27.062Z",
  "networkType": "ethereum",
  "devdoc": {
    "kind": "dev",
    "methods": {
      "addActor(address,string,uint256)": {
        "details": "Emit an event and can be exectued only by admin",
        "params": {
          "_add": "Address of the new actor",
          "_name": "Name of the new actor",
          "_role": "Role of the new actor"
        }
      },
      "addBatch(int32,uint32)": {
        "details": "The first batch state is MANUFACTURED, only MANUFATURER can call this function. Emit an event.",
        "params": {
          "size": "The size of the batch",
          "temp": "The temperature to correctly stock the batch"
        }
      },
      "getActor(address)": {
        "details": "The actor can not exist",
        "params": {
          "_actor": "Address of the actor"
        },
        "returns": {
          "_0": "Actor address, Actor Name, Actor Role"
        }
      },
      "getMyLastNBatch(uint256,address)": {
        "params": {
          "actor": "Address of the actor",
          "n": "the max number of batches to return "
        },
        "returns": {
          "_0": "arrays with summary info about that batches."
        }
      },
      "getTimeline(uint256)": {
        "params": {
          "id": "The identifier of the batch"
        },
        "returns": {
          "_0": "Size, Temperature, Array of: actor addresses, timestamp of updates, actor names, actor roles."
        }
      },
      "updateStatus(uint256)": {
        "details": "New status is automatically recognized, only allowed actor can update from a certain status.",
        "params": {
          "_batch": "the batch id."
        }
      }
    },
    "title": "Supply Chain contract for Covid-19 Vaccine Batch",
    "version": 1
  },
  "userdoc": {
    "kind": "user",
    "methods": {
      "addActor(address,string,uint256)": {
        "notice": "Add an actor on chain"
      },
      "addBatch(int32,uint32)": {
        "notice": "Add a new Vaccine batch on chain"
      },
      "getActor(address)": {
        "notice": "Retrieve an actor on chain"
      },
      "getMyLastNBatch(uint256,address)": {
        "notice": "Retrieve the last n batch recently updated by a given actor."
      },
      "getTimeline(uint256)": {
        "notice": "Retrieve the history of a batch on the supply chain."
      },
      "updateStatus(uint256)": {
        "notice": "Update the status of a batch on the supply chain"
      }
    },
    "notice": "It provides data-field to store logs, function to insert and correctly manipulate data, and it allow safe interaction within actors.",
    "version": 1
  }
}