{
  "contractName": "CovidSupplyChain",
  "abi": [
    {
      "anonymous": false,
      "inputs": [
        {
          "indexed": false,
          "internalType": "address",
          "name": "id",
          "type": "address"
        },
        {
          "indexed": false,
          "internalType": "string",
          "name": "name",
          "type": "string"
        },
        {
          "indexed": false,
          "internalType": "enum CovidSupplyChain.ActorRoles",
          "name": "role",
          "type": "uint8"
        }
      ],
      "name": "AddActor",
      "type": "event"
    },
    {
      "anonymous": false,
      "inputs": [
        {
          "indexed": false,
          "internalType": "uint256",
          "name": "id",
          "type": "uint256"
        },
        {
          "indexed": false,
          "internalType": "address",
          "name": "manufacturer",
          "type": "address"
        },
        {
          "indexed": false,
          "internalType": "uint256",
          "name": "date",
          "type": "uint256"
        }
      ],
      "name": "AddBatch",
      "type": "event"
    },
    {
      "anonymous": false,
      "inputs": [
        {
          "indexed": false,
          "internalType": "uint256",
          "name": "id",
          "type": "uint256"
        },
        {
          "indexed": false,
          "internalType": "enum CovidSupplyChain.BatchStatus",
          "name": "status",
          "type": "uint8"
        },
        {
          "indexed": false,
          "internalType": "address",
          "name": "actor",
          "type": "address"
        },
        {
          "indexed": false,
          "internalType": "uint256",
          "name": "date",
          "type": "uint256"
        }
      ],
      "name": "UpdateStatus",
      "type": "event"
    },
    {
      "inputs": [
        {
          "internalType": "uint256",
          "name": "",
          "type": "uint256"
        }
      ],
      "name": "batches",
      "outputs": [
        {
          "internalType": "uint256",
          "name": "id",
          "type": "uint256"
        },
        {
          "internalType": "enum CovidSupplyChain.BatchStatus",
          "name": "status",
          "type": "uint8"
        }
      ],
      "stateMutability": "view",
      "type": "function",
      "constant": true
    },
    {
      "inputs": [
        {
          "internalType": "uint256",
          "name": "id",
          "type": "uint256"
        }
      ],
      "name": "getTimeline",
      "outputs": [
        {
          "internalType": "address[]",
          "name": "",
          "type": "address[]"
        },
        {
          "internalType": "uint256[]",
          "name": "",
          "type": "uint256[]"
        }
      ],
      "stateMutability": "view",
      "type": "function",
      "constant": true
    },
    {
      "inputs": [
        {
          "internalType": "string",
          "name": "_name",
          "type": "string"
        },
        {
          "internalType": "uint256",
          "name": "_role",
          "type": "uint256"
        }
      ],
      "name": "addActor",
      "outputs": [],
      "stateMutability": "nonpayable",
      "type": "function"
    },
    {
      "inputs": [
        {
          "internalType": "address",
          "name": "_actor",
          "type": "address"
        }
      ],
      "name": "getActor",
      "outputs": [
        {
          "internalType": "address",
          "name": "",
          "type": "address"
        },
        {
          "internalType": "string",
          "name": "",
          "type": "string"
        },
        {
          "internalType": "uint256",
          "name": "",
          "type": "uint256"
        }
      ],
      "stateMutability": "view",
      "type": "function",
      "constant": true
    },
    {
      "inputs": [],
      "name": "addBatch",
      "outputs": [],
      "stateMutability": "nonpayable",
      "type": "function"
    },
    {
      "inputs": [
        {
          "internalType": "uint256",
          "name": "_batch",
          "type": "uint256"
        }
      ],
      "name": "updateStatus",
      "outputs": [],
      "stateMutability": "nonpayable",
      "type": "function"
    }
  ],
  "bytecode": "0x60806040526000805534801561001457600080fd5b50611f57806100246000396000f3fe608060405234801561001057600080fd5b50600436106100625760003560e01c80631ab5f03b14610067578063301a18dd146100985780634138d167146100b4578063b32c4d8d146100e6578063d61e720114610117578063e6980b9914610133575b600080fd5b610081600480360381019061007c91906114ea565b61013d565b60405161008f9291906116c5565b60405180910390f35b6100b260048036038101906100ad9190611842565b6102b0565b005b6100ce60048036038101906100c991906118ca565b610432565b6040516100dd9392919061199d565b60405180910390f35b61010060048036038101906100fb91906114ea565b6105d8565b60405161010e929190611a52565b60405180910390f35b610131600480360381019061012c91906114ea565b610619565b005b61013b610e98565b005b60608060006001848154811061015657610155611a7b565b5b9060005260206000209060040201604051806080016040529081600082015481526020016001820160009054906101000a900460ff16600781111561019e5761019d6119db565b5b60078111156101b0576101af6119db565b5b81526020016002820180548060200260200160405190810160405280929190818152602001828054801561023957602002820191906000526020600020905b8160009054906101000a900473ffffffffffffffffffffffffffffffffffffffff1673ffffffffffffffffffffffffffffffffffffffff16815260200190600101908083116101ef575b505050505081526020016003820180548060200260200160405190810160405280929190818152602001828054801561029157602002820191906000526020600020905b81548152602001906001019080831161027d575b5050505050815250509050806040015181606001519250925050915091565b60008160048111156102c5576102c46119db565b5b9050600060405180606001604052803373ffffffffffffffffffffffffffffffffffffffff168152602001858152602001836004811115610309576103086119db565b5b815250905080600260003373ffffffffffffffffffffffffffffffffffffffff1673ffffffffffffffffffffffffffffffffffffffff16815260200190815260200160002060008201518160000160006101000a81548173ffffffffffffffffffffffffffffffffffffffff021916908373ffffffffffffffffffffffffffffffffffffffff16021790555060208201518160010190805190602001906103b19291906112ec565b5060408201518160020160006101000a81548160ff021916908360048111156103dd576103dc6119db565b5b02179055509050507fb71debf70cec3c02b431cb292f0372461e9003917952bbd71fc05239f012177e81600001518260200151836040015160405161042493929190611af2565b60405180910390a150505050565b600060606000600260008573ffffffffffffffffffffffffffffffffffffffff1673ffffffffffffffffffffffffffffffffffffffff16815260200190815260200160002060000160009054906101000a900473ffffffffffffffffffffffffffffffffffffffff16600260008673ffffffffffffffffffffffffffffffffffffffff1673ffffffffffffffffffffffffffffffffffffffff168152602001908152602001600020600101600260008773ffffffffffffffffffffffffffffffffffffffff1673ffffffffffffffffffffffffffffffffffffffff16815260200190815260200160002060020160009054906101000a900460ff16600481111561053f5761053e6119db565b5b81805461054b90611b5f565b80601f016020809104026020016040519081016040528092919081815260200182805461057790611b5f565b80156105c45780601f10610599576101008083540402835291602001916105c4565b820191906000526020600020905b8154815290600101906020018083116105a757829003601f168201915b505050505091509250925092509193909250565b600181815481106105e857600080fd5b90600052602060002090600402016000915090508060000154908060010160009054906101000a900460ff16905082565b60006001828154811061062f5761062e611a7b565b5b906000526020600020906004020190506000600260003373ffffffffffffffffffffffffffffffffffffffff1673ffffffffffffffffffffffffffffffffffffffff1681526020019081526020016000206040518060600160405290816000820160009054906101000a900473ffffffffffffffffffffffffffffffffffffffff1673ffffffffffffffffffffffffffffffffffffffff1673ffffffffffffffffffffffffffffffffffffffff1681526020016001820180546106f190611b5f565b80601f016020809104026020016040519081016040528092919081815260200182805461071d90611b5f565b801561076a5780601f1061073f5761010080835404028352916020019161076a565b820191906000526020600020905b81548152906001019060200180831161074d57829003601f168201915b505050505081526020016002820160009054906101000a900460ff166004811115610798576107976119db565b5b60048111156107aa576107a96119db565b5b815250509050600060078111156107c4576107c36119db565b5b8260010160009054906101000a900460ff1660078111156107e8576107e76119db565b5b141561088b5760016004811115610802576108016119db565b5b81604001516004811115610819576108186119db565b5b14610859576040517f08c379a000000000000000000000000000000000000000000000000000000000815260040161085090611bdd565b60405180910390fd5b60018260010160006101000a81548160ff02191690836007811115610881576108806119db565b5b0217905550610dad565b6001600781111561089f5761089e6119db565b5b8260010160009054906101000a900460ff1660078111156108c3576108c26119db565b5b141561096657600260048111156108dd576108dc6119db565b5b816040015160048111156108f4576108f36119db565b5b14610934576040517f08c379a000000000000000000000000000000000000000000000000000000000815260040161092b90611c6f565b60405180910390fd5b60028260010160006101000a81548160ff0219169083600781111561095c5761095b6119db565b5b0217905550610dac565b6002600781111561097a576109796119db565b5b8260010160009054906101000a900460ff16600781111561099e5761099d6119db565b5b1415610a4157600160048111156109b8576109b76119db565b5b816040015160048111156109cf576109ce6119db565b5b14610a0f576040517f08c379a0000000000000000000000000000000000000000000000000000000008152600401610a0690611bdd565b60405180910390fd5b60038260010160006101000a81548160ff02191690836007811115610a3757610a366119db565b5b0217905550610dab565b60036007811115610a5557610a546119db565b5b8260010160009054906101000a900460ff166007811115610a7957610a786119db565b5b1415610b1c5760036004811115610a9357610a926119db565b5b81604001516004811115610aaa57610aa96119db565b5b14610aea576040517f08c379a0000000000000000000000000000000000000000000000000000000008152600401610ae190611d01565b60405180910390fd5b60048260010160006101000a81548160ff02191690836007811115610b1257610b116119db565b5b0217905550610daa565b60046007811115610b3057610b2f6119db565b5b8260010160009054906101000a900460ff166007811115610b5457610b536119db565b5b1415610bf75760016004811115610b6e57610b6d6119db565b5b81604001516004811115610b8557610b846119db565b5b14610bc5576040517f08c379a0000000000000000000000000000000000000000000000000000000008152600401610bbc90611bdd565b60405180910390fd5b60058260010160006101000a81548160ff02191690836007811115610bed57610bec6119db565b5b0217905550610da9565b60056007811115610c0b57610c0a6119db565b5b8260010160009054906101000a900460ff166007811115610c2f57610c2e6119db565b5b1415610cd157600480811115610c4857610c476119db565b5b81604001516004811115610c5f57610c5e6119db565b5b14610c9f576040517f08c379a0000000000000000000000000000000000000000000000000000000008152600401610c9690611d6d565b60405180910390fd5b60068260010160006101000a81548160ff02191690836007811115610cc757610cc66119db565b5b0217905550610da8565b60066007811115610ce557610ce46119db565b5b8260010160009054906101000a900460ff166007811115610d0957610d086119db565b5b1415610da757600480811115610d2257610d216119db565b5b81604001516004811115610d3957610d386119db565b5b14610d79576040517f08c379a0000000000000000000000000000000000000000000000000000000008152600401610d7090611d6d565b60405180910390fd5b60078260010160006101000a81548160ff02191690836007811115610da157610da06119db565b5b02179055505b5b5b5b5b5b5b8160030142908060018154018082558091505060019003906000526020600020016000909190919091505581600201339080600181540180825580915050600190039060005260206000200160009091909190916101000a81548173ffffffffffffffffffffffffffffffffffffffff021916908373ffffffffffffffffffffffffffffffffffffffff1602179055507f6c2699b741ecbf666c39c2dd5ca8bea7feccbbd96846a390bec260b9ab72121b82600001548360010160009054906101000a900460ff16836000015142604051610e8b9493929190611d8d565b60405180910390a1505050565b60006004811115610eac57610eab6119db565b5b600260003373ffffffffffffffffffffffffffffffffffffffff1673ffffffffffffffffffffffffffffffffffffffff16815260200190815260200160002060020160009054906101000a900460ff166004811115610f0e57610f0d6119db565b5b14610f4e576040517f08c379a0000000000000000000000000000000000000000000000000000000008152600401610f4590611e1e565b60405180910390fd5b6000429050610f5b611372565b600054816000018181525050600081602001906007811115610f8057610f7f6119db565b5b90816007811115610f9457610f936119db565b5b81525050600167ffffffffffffffff811115610fb357610fb2611717565b5b604051908082528060200260200182016040528015610fe15781602001602082028036833780820191505090505b508160400181905250600167ffffffffffffffff81111561100557611004611717565b5b6040519080825280602002602001820160405280156110335781602001602082028036833780820191505090505b50816060018190525060018190806001815401808255809150506001900390600052602060002090600402016000909190919091506000820151816000015560208201518160010160006101000a81548160ff0219169083600781111561109d5761109c6119db565b5b021790555060408201518160020190805190602001906110be9291906113ac565b5060608201518160030190805190602001906110db929190611436565b5050503360018080805490506110f19190611e6d565b8154811061110257611101611a7b565b5b906000526020600020906004020160020160008154811061112657611125611a7b565b5b9060005260206000200160006101000a81548173ffffffffffffffffffffffffffffffffffffffff021916908373ffffffffffffffffffffffffffffffffffffffff1602179055508160018080805490506111819190611e6d565b8154811061119257611191611a7b565b5b90600052602060002090600402016003016000815481106111b6576111b5611a7b565b5b90600052602060002001819055507f9152d61727e6803b1ecc99be15a3545cb0e2e75656a1d3d603d54bbc9d614c5e600180805490506111f69190611e6d565b60018080805490506112089190611e6d565b8154811061121957611218611a7b565b5b906000526020600020906004020160020160008154811061123d5761123c611a7b565b5b9060005260206000200160009054906101000a900473ffffffffffffffffffffffffffffffffffffffff16600180808054905061127a9190611e6d565b8154811061128b5761128a611a7b565b5b90600052602060002090600402016003016000815481106112af576112ae611a7b565b5b90600052602060002001546040516112c993929190611ea1565b60405180910390a16000808154809291906112e390611ed8565b91905055505050565b8280546112f890611b5f565b90600052602060002090601f01602090048101928261131a5760008555611361565b82601f1061133357805160ff1916838001178555611361565b82800160010185558215611361579182015b82811115611360578251825591602001919060010190611345565b5b50905061136e9190611483565b5090565b60405180608001604052806000815260200160006007811115611398576113976119db565b5b815260200160608152602001606081525090565b828054828255906000526020600020908101928215611425579160200282015b828111156114245782518260006101000a81548173ffffffffffffffffffffffffffffffffffffffff021916908373ffffffffffffffffffffffffffffffffffffffff160217905550916020019190600101906113cc565b5b5090506114329190611483565b5090565b828054828255906000526020600020908101928215611472579160200282015b82811115611471578251825591602001919060010190611456565b5b50905061147f9190611483565b5090565b5b8082111561149c576000816000905550600101611484565b5090565b6000604051905090565b600080fd5b600080fd5b6000819050919050565b6114c7816114b4565b81146114d257600080fd5b50565b6000813590506114e4816114be565b92915050565b600060208284031215611500576114ff6114aa565b5b600061150e848285016114d5565b91505092915050565b600081519050919050565b600082825260208201905092915050565b6000819050602082019050919050565b600073ffffffffffffffffffffffffffffffffffffffff82169050919050565b600061156e82611543565b9050919050565b61157e81611563565b82525050565b60006115908383611575565b60208301905092915050565b6000602082019050919050565b60006115b482611517565b6115be8185611522565b93506115c983611533565b8060005b838110156115fa5781516115e18882611584565b97506115ec8361159c565b9250506001810190506115cd565b5085935050505092915050565b600081519050919050565b600082825260208201905092915050565b6000819050602082019050919050565b61163c816114b4565b82525050565b600061164e8383611633565b60208301905092915050565b6000602082019050919050565b600061167282611607565b61167c8185611612565b935061168783611623565b8060005b838110156116b857815161169f8882611642565b97506116aa8361165a565b92505060018101905061168b565b5085935050505092915050565b600060408201905081810360008301526116df81856115a9565b905081810360208301526116f38184611667565b90509392505050565b600080fd5b600080fd5b6000601f19601f8301169050919050565b7f4e487b7100000000000000000000000000000000000000000000000000000000600052604160045260246000fd5b61174f82611706565b810181811067ffffffffffffffff8211171561176e5761176d611717565b5b80604052505050565b60006117816114a0565b905061178d8282611746565b919050565b600067ffffffffffffffff8211156117ad576117ac611717565b5b6117b682611706565b9050602081019050919050565b82818337600083830152505050565b60006117e56117e084611792565b611777565b90508281526020810184848401111561180157611800611701565b5b61180c8482856117c3565b509392505050565b600082601f830112611829576118286116fc565b5b81356118398482602086016117d2565b91505092915050565b60008060408385031215611859576118586114aa565b5b600083013567ffffffffffffffff811115611877576118766114af565b5b61188385828601611814565b9250506020611894858286016114d5565b9150509250929050565b6118a781611563565b81146118b257600080fd5b50565b6000813590506118c48161189e565b92915050565b6000602082840312156118e0576118df6114aa565b5b60006118ee848285016118b5565b91505092915050565b61190081611563565b82525050565b600081519050919050565b600082825260208201905092915050565b60005b83811015611940578082015181840152602081019050611925565b8381111561194f576000848401525b50505050565b600061196082611906565b61196a8185611911565b935061197a818560208601611922565b61198381611706565b840191505092915050565b611997816114b4565b82525050565b60006060820190506119b260008301866118f7565b81810360208301526119c48185611955565b90506119d3604083018461198e565b949350505050565b7f4e487b7100000000000000000000000000000000000000000000000000000000600052602160045260246000fd5b60088110611a1b57611a1a6119db565b5b50565b6000819050611a2c82611a0a565b919050565b6000611a3c82611a1e565b9050919050565b611a4c81611a31565b82525050565b6000604082019050611a67600083018561198e565b611a746020830184611a43565b9392505050565b7f4e487b7100000000000000000000000000000000000000000000000000000000600052603260045260246000fd5b60058110611abb57611aba6119db565b5b50565b6000819050611acc82611aaa565b919050565b6000611adc82611abe565b9050919050565b611aec81611ad1565b82525050565b6000606082019050611b0760008301866118f7565b8181036020830152611b198185611955565b9050611b286040830184611ae3565b949350505050565b7f4e487b7100000000000000000000000000000000000000000000000000000000600052602260045260246000fd5b60006002820490506001821680611b7757607f821691505b60208210811415611b8b57611b8a611b30565b5b50919050565b7f796f7520617265206e6f74206120636f75726965722100000000000000000000600082015250565b6000611bc7601683611911565b9150611bd282611b91565b602082019050919050565b60006020820190508181036000830152611bf681611bba565b9050919050565b7f796f7520617265206e6f742061206e6174696f6e616c20666163696c6974696560008201527f7320776f726b6572210000000000000000000000000000000000000000000000602082015250565b6000611c59602983611911565b9150611c6482611bfd565b604082019050919050565b60006020820190508181036000830152611c8881611c4c565b9050919050565b7f796f7520617265206e6f74206120726567696f6e616c20666163696c6974696560008201527f7320776f726b6572210000000000000000000000000000000000000000000000602082015250565b6000611ceb602983611911565b9150611cf682611c8f565b604082019050919050565b60006020820190508181036000830152611d1a81611cde565b9050919050565b7f796f7520617265206e6f7420616e2068756220776f726b657221000000000000600082015250565b6000611d57601a83611911565b9150611d6282611d21565b602082019050919050565b60006020820190508181036000830152611d8681611d4a565b9050919050565b6000608082019050611da2600083018761198e565b611daf6020830186611a43565b611dbc60408301856118f7565b611dc9606083018461198e565b95945050505050565b7f796f752063616e27742061646420612062617463682100000000000000000000600082015250565b6000611e08601683611911565b9150611e1382611dd2565b602082019050919050565b60006020820190508181036000830152611e3781611dfb565b9050919050565b7f4e487b7100000000000000000000000000000000000000000000000000000000600052601160045260246000fd5b6000611e78826114b4565b9150611e83836114b4565b925082821015611e9657611e95611e3e565b5b828203905092915050565b6000606082019050611eb6600083018661198e565b611ec360208301856118f7565b611ed0604083018461198e565b949350505050565b6000611ee3826114b4565b91507fffffffffffffffffffffffffffffffffffffffffffffffffffffffffffffffff821415611f1657611f15611e3e565b5b60018201905091905056fea2646970667358221220d834b0dbaef58f7a8937576a0b729f14b3b288b9a425516ae1dfece2176058a264736f6c634300080a0033",
  "immutableReferences": {},
  "source": "// SPDX-License-Identifier: CC-BY-SA-4.0\npragma solidity >=0.7.0 <0.9.0;\n\ncontract CovidSupplyChain {\n\n    enum BatchStatus { MANUFACTURED, DELIVER_NATIONAL, STORED_NATIONAL, DELIVER_REGIONAL, STORED_REGIONAL, DELIVER_HUB, STORED_HUB, USED}\n    enum ActorRoles  { MANUFACTURER, COURIER, NATIONAL_FACILITIES, REGIONAL_FACILITIES, VAX_HUB}\n\n    struct Actor\n    {\n        address id;\n        string name;\n        ActorRoles role;\n    }\n\n    struct VaccineBatch \n    {\n        uint id;\n        BatchStatus status;\n        address[] chain_actors;\n        uint256[] chain_dates;\n    }\n\n    uint vaccineId = 0; // contatore globale per l'id dei vaccini\n\n    VaccineBatch[] public batches;\n    mapping (address => Actor) actors;\n\n    event AddActor (address id, string name, ActorRoles role);\n    event AddBatch (uint id, address manufacturer, uint date);\n    event UpdateStatus (uint id, BatchStatus status, address actor, uint date);\n\n\n    function getTimeline (uint id) public view returns ( address[] memory, uint256[] memory)\n    {\n        VaccineBatch memory batch = batches[id];\n        return (batch.chain_actors, batch.chain_dates) ;\n    }\n\n\n\n    function addActor (string memory _name, uint _role) public \n    {\n        ActorRoles role =  ActorRoles(_role);\n        Actor memory member = Actor(msg.sender, _name, role);\n        actors[msg.sender] = member;\n        emit AddActor(member.id, member.name, member.role);\n    }\n\n    function getActor (address _actor) public view returns ( address, string memory,  uint)\n    {\n        return (actors[_actor].id, actors[_actor].name, uint(actors[_actor].role)) ;\n    }\n\n\n    function addBatch () public {\n        require(actors[msg.sender].role == ActorRoles.MANUFACTURER, \"you can't add a batch!\");\n\n        uint256 date = block.timestamp;\n\n        VaccineBatch memory lastBatch;\n        lastBatch.id = vaccineId;\n        lastBatch.status = BatchStatus.MANUFACTURED;\n        lastBatch.chain_actors = new address[](1);\n        lastBatch.chain_dates = new uint[](1);\n        batches.push(lastBatch);\n\n        batches[batches.length-1].chain_actors[0] = msg.sender;\n        batches[batches.length-1].chain_dates[0] = date;\n\n        emit AddBatch(batches.length-1, batches[batches.length-1].chain_actors[0], batches[batches.length-1].chain_dates[0]);\n        \n        vaccineId++;\n    }\n\n\n\n    function updateStatus (uint _batch) public\n    {\n        VaccineBatch storage batch = batches[_batch];\n        Actor memory actor = actors[msg.sender];\n        if (batch.status == BatchStatus.MANUFACTURED) {\n            require(actor.role == ActorRoles.COURIER, \"you are not a courier!\");\n            batch.status = BatchStatus.DELIVER_NATIONAL;\n        }\n        else if (batch.status == BatchStatus.DELIVER_NATIONAL) {\n            require(actor.role == ActorRoles.NATIONAL_FACILITIES, \"you are not a national facilities worker!\");\n            batch.status = BatchStatus.STORED_NATIONAL;\n        }\n        else if (batch.status == BatchStatus.STORED_NATIONAL) {\n            require(actor.role == ActorRoles.COURIER, \"you are not a courier!\");\n            batch.status = BatchStatus.DELIVER_REGIONAL;\n        }\n        else if (batch.status == BatchStatus.DELIVER_REGIONAL) {\n            require(actor.role == ActorRoles.REGIONAL_FACILITIES, \"you are not a regional facilities worker!\");\n            batch.status = BatchStatus.STORED_REGIONAL;\n        }\n        else if (batch.status == BatchStatus.STORED_REGIONAL) {\n            require(actor.role == ActorRoles.COURIER, \"you are not a courier!\");\n            batch.status = BatchStatus.DELIVER_HUB;\n        }\n        else if (batch.status == BatchStatus.DELIVER_HUB) {\n            require(actor.role == ActorRoles.VAX_HUB, \"you are not an hub worker!\");\n            batch.status = BatchStatus.STORED_HUB;\n        }\n        else if (batch.status == BatchStatus.STORED_HUB) {\n            require(actor.role == ActorRoles.VAX_HUB, \"you are not an hub worker!\");\n            batch.status = BatchStatus.USED;\n        }\n        batch.chain_dates.push(block.timestamp);\n        batch.chain_actors.push(msg.sender);\n        emit UpdateStatus (batch.id, batch.status, actor.id, block.timestamp);\n    } \n\n}",
  "sourcePath": "/home/andrea/Scrivania/AFC/progetto-BC/back-end/contracts/CovidSupplyChain.sol",
  "compiler": {
    "name": "solc",
    "version": "0.8.10+commit.fc410830.Emscripten.clang"
  },
  "schemaVersion": "3.4.3",
  "updatedAt": "2022-02-11T15:47:53.667Z",
  "networkType": "ethereum",
  "devdoc": {
    "kind": "dev",
    "methods": {},
    "version": 1
  },
  "userdoc": {
    "kind": "user",
    "methods": {},
    "version": 1
  }
}