{
  "contractName": "CovidSupplyChain",
  "abi": [
    {
      "inputs": [],
      "stateMutability": "nonpayable",
      "type": "constructor"
    },
    {
      "anonymous": false,
      "inputs": [
        {
          "indexed": false,
          "internalType": "address",
          "name": "id",
          "type": "address"
        },
        {
          "indexed": false,
          "internalType": "string",
          "name": "name",
          "type": "string"
        },
        {
          "indexed": false,
          "internalType": "enum CovidSupplyChain.ActorRoles",
          "name": "role",
          "type": "uint8"
        }
      ],
      "name": "AddActor",
      "type": "event"
    },
    {
      "anonymous": false,
      "inputs": [
        {
          "indexed": false,
          "internalType": "uint256",
          "name": "id",
          "type": "uint256"
        },
        {
          "indexed": false,
          "internalType": "address",
          "name": "manufacturer",
          "type": "address"
        },
        {
          "indexed": false,
          "internalType": "uint256",
          "name": "date",
          "type": "uint256"
        }
      ],
      "name": "AddBatch",
      "type": "event"
    },
    {
      "anonymous": false,
      "inputs": [
        {
          "indexed": false,
          "internalType": "uint256",
          "name": "id",
          "type": "uint256"
        },
        {
          "indexed": false,
          "internalType": "enum CovidSupplyChain.BatchStatus",
          "name": "status",
          "type": "uint8"
        },
        {
          "indexed": false,
          "internalType": "address",
          "name": "actor",
          "type": "address"
        },
        {
          "indexed": false,
          "internalType": "uint256",
          "name": "date",
          "type": "uint256"
        }
      ],
      "name": "UpdateStatus",
      "type": "event"
    },
    {
      "inputs": [
        {
          "internalType": "address",
          "name": "_add",
          "type": "address"
        },
        {
          "internalType": "string",
          "name": "_name",
          "type": "string"
        },
        {
          "internalType": "uint256",
          "name": "_role",
          "type": "uint256"
        }
      ],
      "name": "addActor",
      "outputs": [],
      "stateMutability": "nonpayable",
      "type": "function"
    },
    {
      "inputs": [
        {
          "internalType": "address",
          "name": "_actor",
          "type": "address"
        }
      ],
      "name": "getActor",
      "outputs": [
        {
          "internalType": "address",
          "name": "",
          "type": "address"
        },
        {
          "internalType": "string",
          "name": "",
          "type": "string"
        },
        {
          "internalType": "uint256",
          "name": "",
          "type": "uint256"
        }
      ],
      "stateMutability": "view",
      "type": "function",
      "constant": true
    },
    {
      "inputs": [
        {
          "internalType": "int32",
          "name": "temp",
          "type": "int32"
        },
        {
          "internalType": "uint32",
          "name": "size",
          "type": "uint32"
        }
      ],
      "name": "addBatch",
      "outputs": [],
      "stateMutability": "nonpayable",
      "type": "function"
    },
    {
      "inputs": [
        {
          "internalType": "uint256",
          "name": "_batch",
          "type": "uint256"
        }
      ],
      "name": "updateStatus",
      "outputs": [],
      "stateMutability": "nonpayable",
      "type": "function"
    },
    {
      "inputs": [
        {
          "internalType": "uint256",
          "name": "id",
          "type": "uint256"
        }
      ],
      "name": "getTimeline",
      "outputs": [
        {
          "internalType": "uint32",
          "name": "",
          "type": "uint32"
        },
        {
          "internalType": "int32",
          "name": "",
          "type": "int32"
        },
        {
          "internalType": "address[]",
          "name": "",
          "type": "address[]"
        },
        {
          "internalType": "uint256[]",
          "name": "",
          "type": "uint256[]"
        },
        {
          "internalType": "string[]",
          "name": "",
          "type": "string[]"
        },
        {
          "internalType": "uint256[]",
          "name": "",
          "type": "uint256[]"
        }
      ],
      "stateMutability": "view",
      "type": "function",
      "constant": true
    },
    {
      "inputs": [
        {
          "internalType": "uint256",
          "name": "n",
          "type": "uint256"
        },
        {
          "internalType": "address",
          "name": "actor",
          "type": "address"
        }
      ],
      "name": "getMyLastNBatch",
      "outputs": [
        {
          "internalType": "uint256[]",
          "name": "",
          "type": "uint256[]"
        },
        {
          "internalType": "uint256[]",
          "name": "",
          "type": "uint256[]"
        },
        {
          "internalType": "uint32[]",
          "name": "",
          "type": "uint32[]"
        },
        {
          "internalType": "int32[]",
          "name": "",
          "type": "int32[]"
        }
      ],
      "stateMutability": "view",
      "type": "function",
      "constant": true
    }
  ],
  "bytecode": "0x60806040523480156200001157600080fd5b5060405180606001604052803373ffffffffffffffffffffffffffffffffffffffff1681526020016040518060400160405280600b81526020017f4f776e65722041646d696e00000000000000000000000000000000000000000081525081526020016005808111156200008a576200008962000362565b5b60058111156200009f576200009e62000362565b5b815250600160003373ffffffffffffffffffffffffffffffffffffffff1673ffffffffffffffffffffffffffffffffffffffff16815260200190815260200160002060008201518160000160006101000a81548173ffffffffffffffffffffffffffffffffffffffff021916908373ffffffffffffffffffffffffffffffffffffffff160217905550602082015181600101908051906020019062000146929190620002b2565b5060408201518160020160006101000a81548160ff0219169083600581111562000175576200017462000362565b5b02179055509050507fb71debf70cec3c02b431cb292f0372461e9003917952bbd71fc05239f012177e600160003373ffffffffffffffffffffffffffffffffffffffff1673ffffffffffffffffffffffffffffffffffffffff16815260200190815260200160002060000160009054906101000a900473ffffffffffffffffffffffffffffffffffffffff16600160003373ffffffffffffffffffffffffffffffffffffffff1673ffffffffffffffffffffffffffffffffffffffff168152602001908152602001600020600101600160003373ffffffffffffffffffffffffffffffffffffffff1673ffffffffffffffffffffffffffffffffffffffff16815260200190815260200160002060020160009054906101000a900460ff16604051620002a4939291906200053e565b60405180910390a162000582565b828054620002c09062000405565b90600052602060002090601f016020900481019282620002e4576000855562000330565b82601f10620002ff57805160ff191683800117855562000330565b8280016001018555821562000330579182015b828111156200032f57825182559160200191906001019062000312565b5b5090506200033f919062000343565b5090565b5b808211156200035e57600081600090555060010162000344565b5090565b7f4e487b7100000000000000000000000000000000000000000000000000000000600052602160045260246000fd5b600073ffffffffffffffffffffffffffffffffffffffff82169050919050565b6000620003be8262000391565b9050919050565b620003d081620003b1565b82525050565b7f4e487b7100000000000000000000000000000000000000000000000000000000600052602260045260246000fd5b600060028204905060018216806200041e57607f821691505b60208210811415620004355762000434620003d6565b5b50919050565b600082825260208201905092915050565b60008190508160005260206000209050919050565b60008154620004708162000405565b6200047c81866200043b565b945060018216600081146200049a5760018114620004ad57620004e4565b60ff1983168652602086019350620004e4565b620004b8856200044c565b60005b83811015620004dc57815481890152600182019150602081019050620004bb565b808801955050505b50505092915050565b6006811062000501576200050062000362565b5b50565b60008190506200051482620004ed565b919050565b6000620005268262000504565b9050919050565b620005388162000519565b82525050565b6000606082019050620005556000830186620003c5565b818103602083015262000569818562000461565b90506200057a60408301846200052d565b949350505050565b612a9780620005926000396000f3fe608060405234801561001057600080fd5b50600436106100625760003560e01c80631ab5f03b146100675780634138d1671461009c5780635a8f8ddb146100ce5780636c487bdf146100ea578063d61e72011461011d578063fc44ec9714610139575b600080fd5b610081600480360381019061007c9190611aec565b610155565b60405161009396959493929190611e5d565b60405180910390f35b6100b660048036038101906100b19190611f06565b610558565b6040516100c593929190611f9b565b60405180910390f35b6100e860048036038101906100e39190612031565b6106fe565b005b61010460048036038101906100ff9190612071565b610b4a565b604051610114949392919061222d565b60405180910390f35b61013760048036038101906101329190611aec565b610eea565b005b610153600480360381019061014e91906123c3565b6116bf565b005b600080606080606080600080888154811061017357610172612432565b5b90600052602060002090600302016040518060800160405290816000820160009054906101000a900463ffffffff1663ffffffff1663ffffffff1681526020016000820160049054906101000a900460030b60030b60030b81526020016001820180548060200260200160405190810160405280929190818152602001828054801561025457602002820191906000526020600020905b8160009054906101000a900473ffffffffffffffffffffffffffffffffffffffff1673ffffffffffffffffffffffffffffffffffffffff168152602001906001019080831161020a575b50505050508152602001600282018054806020026020016040519081016040528092919081815260200182805480156102ac57602002820191906000526020600020905b815481526020019060010190808311610298575b5050505050815250509050600081604001515167ffffffffffffffff8111156102d8576102d7612298565b5b60405190808252806020026020018201604052801561030b57816020015b60608152602001906001900390816102f65790505b509050600082604001515167ffffffffffffffff81111561032f5761032e612298565b5b60405190808252806020026020018201604052801561035d5781602001602082028036833780820191505090505b50905060005b83604001515181101561052957600160008560400151838151811061038b5761038a612432565b5b602002602001015173ffffffffffffffffffffffffffffffffffffffff1673ffffffffffffffffffffffffffffffffffffffff16815260200190815260200160002060010180546103db90612490565b80601f016020809104026020016040519081016040528092919081815260200182805461040790612490565b80156104545780601f1061042957610100808354040283529160200191610454565b820191906000526020600020905b81548152906001019060200180831161043757829003601f168201915b505050505083828151811061046c5761046b612432565b5b6020026020010181905250600160008560400151838151811061049257610491612432565b5b602002602001015173ffffffffffffffffffffffffffffffffffffffff1673ffffffffffffffffffffffffffffffffffffffff16815260200190815260200160002060020160009054906101000a900460ff1660058111156104f7576104f66124c2565b5b82828151811061050a57610509612432565b5b602002602001018181525050808061052190612520565b915050610363565b508260000151836020015184604001518560600151858598509850985098509850985050505091939550919395565b600060606000600160008573ffffffffffffffffffffffffffffffffffffffff1673ffffffffffffffffffffffffffffffffffffffff16815260200190815260200160002060000160009054906101000a900473ffffffffffffffffffffffffffffffffffffffff16600160008673ffffffffffffffffffffffffffffffffffffffff1673ffffffffffffffffffffffffffffffffffffffff168152602001908152602001600020600101600160008773ffffffffffffffffffffffffffffffffffffffff1673ffffffffffffffffffffffffffffffffffffffff16815260200190815260200160002060020160009054906101000a900460ff166005811115610665576106646124c2565b5b81805461067190612490565b80601f016020809104026020016040519081016040528092919081815260200182805461069d90612490565b80156106ea5780601f106106bf576101008083540402835291602001916106ea565b820191906000526020600020905b8154815290600101906020018083116106cd57829003601f168201915b505050505091509250925092509193909250565b60006005811115610712576107116124c2565b5b600160003373ffffffffffffffffffffffffffffffffffffffff1673ffffffffffffffffffffffffffffffffffffffff16815260200190815260200160002060020160009054906101000a900460ff166005811115610774576107736124c2565b5b146107b4576040517f08c379a00000000000000000000000000000000000000000000000000000000081526004016107ab906125b5565b60405180910390fd5b60004290506107c16118f7565b83816020019060030b908160030b8152505082816000019063ffffffff16908163ffffffff1681525050600167ffffffffffffffff81111561080657610805612298565b5b6040519080825280602002602001820160405280156108345781602001602082028036833780820191505090505b508160400181905250600167ffffffffffffffff81111561085857610857612298565b5b6040519080825280602002602001820160405280156108865781602001602082028036833780820191505090505b508160600181905250600081908060018154018082558091505060019003906000526020600020906003020160009091909190915060008201518160000160006101000a81548163ffffffff021916908363ffffffff16021790555060208201518160000160046101000a81548163ffffffff021916908360030b63ffffffff1602179055506040820151816001019080519060200190610928929190611928565b5060608201518160020190805190602001906109459291906119b2565b505050336000600160008054905061095d91906125d5565b8154811061096e5761096d612432565b5b906000526020600020906003020160010160008154811061099257610991612432565b5b9060005260206000200160006101000a81548173ffffffffffffffffffffffffffffffffffffffff021916908373ffffffffffffffffffffffffffffffffffffffff16021790555081600060016000805490506109ef91906125d5565b81548110610a00576109ff612432565b5b9060005260206000209060030201600201600081548110610a2457610a23612432565b5b90600052602060002001819055507f9152d61727e6803b1ecc99be15a3545cb0e2e75656a1d3d603d54bbc9d614c5e6001600080549050610a6591906125d5565b60006001600080549050610a7991906125d5565b81548110610a8a57610a89612432565b5b9060005260206000209060030201600101600081548110610aae57610aad612432565b5b9060005260206000200160009054906101000a900473ffffffffffffffffffffffffffffffffffffffff1660006001600080549050610aed91906125d5565b81548110610afe57610afd612432565b5b9060005260206000209060030201600201600081548110610b2257610b21612432565b5b9060005260206000200154604051610b3c93929190612609565b60405180910390a150505050565b60608060608060008667ffffffffffffffff811115610b6c57610b6b612298565b5b604051908082528060200260200182016040528015610b9a5781602001602082028036833780820191505090505b50905060008767ffffffffffffffff811115610bb957610bb8612298565b5b604051908082528060200260200182016040528015610be75781602001602082028036833780820191505090505b50905060008867ffffffffffffffff811115610c0657610c05612298565b5b604051908082528060200260200182016040528015610c345781602001602082028036833780820191505090505b50905060008967ffffffffffffffff811115610c5357610c52612298565b5b604051908082528060200260200182016040528015610c815781602001602082028036833780820191505090505b509050600080808054905090505b6000811115610ecf57600060016000600184610cab91906125d5565b81548110610cbc57610cbb612432565b5b906000526020600020906003020160010180549050610cdb91906125d5565b90508b73ffffffffffffffffffffffffffffffffffffffff166000600184610d0391906125d5565b81548110610d1457610d13612432565b5b90600052602060002090600302016001018281548110610d3757610d36612432565b5b9060005260206000200160009054906101000a900473ffffffffffffffffffffffffffffffffffffffff1673ffffffffffffffffffffffffffffffffffffffff161415610ebb57600182610d8b91906125d5565b878481518110610d9e57610d9d612432565b5b60200260200101818152505080868481518110610dbe57610dbd612432565b5b6020026020010181815250506000600183610dd991906125d5565b81548110610dea57610de9612432565b5b906000526020600020906003020160000160049054906101000a900460030b858481518110610e1c57610e1b612432565b5b602002602001019060030b908160030b815250506000600183610e3f91906125d5565b81548110610e5057610e4f612432565b5b906000526020600020906003020160000160009054906101000a900463ffffffff16848481518110610e8557610e84612432565b5b602002602001019063ffffffff16908163ffffffff16815250508280610eaa90612520565b9350508c8310610eba5750610ecf565b5b508080610ec790612640565b915050610c8f565b50848483859850985098509850505050505092959194509250565b6000808281548110610eff57610efe612432565b5b906000526020600020906003020190506000600160003373ffffffffffffffffffffffffffffffffffffffff1673ffffffffffffffffffffffffffffffffffffffff1681526020019081526020016000206040518060600160405290816000820160009054906101000a900473ffffffffffffffffffffffffffffffffffffffff1673ffffffffffffffffffffffffffffffffffffffff1673ffffffffffffffffffffffffffffffffffffffff168152602001600182018054610fc190612490565b80601f0160208091040260200160405190810160405280929190818152602001828054610fed90612490565b801561103a5780601f1061100f5761010080835404028352916020019161103a565b820191906000526020600020905b81548152906001019060200180831161101d57829003601f168201915b505050505081526020016002820160009054906101000a900460ff166005811115611068576110676124c2565b5b600581111561107a576110796124c2565b5b81525050905060006001836001018054905061109691906125d5565b60078111156110a8576110a76124c2565b5b9050600060078111156110be576110bd6124c2565b5b8160078111156110d1576110d06124c2565b5b141561114757600160058111156110eb576110ea6124c2565b5b82604001516005811115611102576111016124c2565b5b14611142576040517f08c379a0000000000000000000000000000000000000000000000000000000008152600401611139906126b6565b60405180910390fd5b6115b8565b6001600781111561115b5761115a6124c2565b5b81600781111561116e5761116d6124c2565b5b14156111e45760026005811115611188576111876124c2565b5b8260400151600581111561119f5761119e6124c2565b5b146111df576040517f08c379a00000000000000000000000000000000000000000000000000000000081526004016111d690612748565b60405180910390fd5b6115b7565b600260078111156111f8576111f76124c2565b5b81600781111561120b5761120a6124c2565b5b14156112815760016005811115611225576112246124c2565b5b8260400151600581111561123c5761123b6124c2565b5b1461127c576040517f08c379a0000000000000000000000000000000000000000000000000000000008152600401611273906126b6565b60405180910390fd5b6115b6565b60036007811115611295576112946124c2565b5b8160078111156112a8576112a76124c2565b5b141561131e57600360058111156112c2576112c16124c2565b5b826040015160058111156112d9576112d86124c2565b5b14611319576040517f08c379a0000000000000000000000000000000000000000000000000000000008152600401611310906127da565b60405180910390fd5b6115b5565b60046007811115611332576113316124c2565b5b816007811115611345576113446124c2565b5b14156113bb576001600581111561135f5761135e6124c2565b5b82604001516005811115611376576113756124c2565b5b146113b6576040517f08c379a00000000000000000000000000000000000000000000000000000000081526004016113ad906126b6565b60405180910390fd5b6115b4565b600560078111156113cf576113ce6124c2565b5b8160078111156113e2576113e16124c2565b5b141561145857600460058111156113fc576113fb6124c2565b5b82604001516005811115611413576114126124c2565b5b14611453576040517f08c379a000000000000000000000000000000000000000000000000000000000815260040161144a90612846565b60405180910390fd5b6115b3565b6006600781111561146c5761146b6124c2565b5b81600781111561147f5761147e6124c2565b5b14156115b25760046005811115611499576114986124c2565b5b826040015160058111156114b0576114af6124c2565b5b146114f0576040517f08c379a00000000000000000000000000000000000000000000000000000000081526004016114e790612846565b60405180910390fd5b826001016001846001018054905061150891906125d5565b8154811061151957611518612432565b5b9060005260206000200160009054906101000a900473ffffffffffffffffffffffffffffffffffffffff1673ffffffffffffffffffffffffffffffffffffffff163373ffffffffffffffffffffffffffffffffffffffff16146115b1576040517f08c379a00000000000000000000000000000000000000000000000000000000081526004016115a8906128d8565b60405180910390fd5b5b5b5b5b5b5b5b8260020142908060018154018082558091505060019003906000526020600020016000909190919091505582600101339080600181540180825580915050600190039060005260206000200160009091909190916101000a81548173ffffffffffffffffffffffffffffffffffffffff021916908373ffffffffffffffffffffffffffffffffffffffff1602179055507f6c2699b741ecbf666c39c2dd5ca8bea7feccbbd96846a390bec260b9ab72121b84600183600781111561167f5761167e6124c2565b5b61168991906128f8565b600781111561169b5761169a6124c2565b5b8460000151426040516116b19493929190612996565b60405180910390a150505050565b6005808111156116d2576116d16124c2565b5b600160003373ffffffffffffffffffffffffffffffffffffffff1673ffffffffffffffffffffffffffffffffffffffff16815260200190815260200160002060020160009054906101000a900460ff166005811115611734576117336124c2565b5b14611774576040517f08c379a000000000000000000000000000000000000000000000000000000000815260040161176b906125b5565b60405180910390fd5b6000816005811115611789576117886124c2565b5b9050600060405180606001604052808673ffffffffffffffffffffffffffffffffffffffff1681526020018581526020018360058111156117cd576117cc6124c2565b5b815250905080600160008773ffffffffffffffffffffffffffffffffffffffff1673ffffffffffffffffffffffffffffffffffffffff16815260200190815260200160002060008201518160000160006101000a81548173ffffffffffffffffffffffffffffffffffffffff021916908373ffffffffffffffffffffffffffffffffffffffff16021790555060208201518160010190805190602001906118759291906119ff565b5060408201518160020160006101000a81548160ff021916908360058111156118a1576118a06124c2565b5b02179055509050507fb71debf70cec3c02b431cb292f0372461e9003917952bbd71fc05239f012177e8160000151826020015183604001516040516118e893929190612a23565b60405180910390a15050505050565b6040518060800160405280600063ffffffff168152602001600060030b815260200160608152602001606081525090565b8280548282559060005260206000209081019282156119a1579160200282015b828111156119a05782518260006101000a81548173ffffffffffffffffffffffffffffffffffffffff021916908373ffffffffffffffffffffffffffffffffffffffff16021790555091602001919060010190611948565b5b5090506119ae9190611a85565b5090565b8280548282559060005260206000209081019282156119ee579160200282015b828111156119ed5782518255916020019190600101906119d2565b5b5090506119fb9190611a85565b5090565b828054611a0b90612490565b90600052602060002090601f016020900481019282611a2d5760008555611a74565b82601f10611a4657805160ff1916838001178555611a74565b82800160010185558215611a74579182015b82811115611a73578251825591602001919060010190611a58565b5b509050611a819190611a85565b5090565b5b80821115611a9e576000816000905550600101611a86565b5090565b6000604051905090565b600080fd5b600080fd5b6000819050919050565b611ac981611ab6565b8114611ad457600080fd5b50565b600081359050611ae681611ac0565b92915050565b600060208284031215611b0257611b01611aac565b5b6000611b1084828501611ad7565b91505092915050565b600063ffffffff82169050919050565b611b3281611b19565b82525050565b60008160030b9050919050565b611b4e81611b38565b82525050565b600081519050919050565b600082825260208201905092915050565b6000819050602082019050919050565b600073ffffffffffffffffffffffffffffffffffffffff82169050919050565b6000611bab82611b80565b9050919050565b611bbb81611ba0565b82525050565b6000611bcd8383611bb2565b60208301905092915050565b6000602082019050919050565b6000611bf182611b54565b611bfb8185611b5f565b9350611c0683611b70565b8060005b83811015611c37578151611c1e8882611bc1565b9750611c2983611bd9565b925050600181019050611c0a565b5085935050505092915050565b600081519050919050565b600082825260208201905092915050565b6000819050602082019050919050565b611c7981611ab6565b82525050565b6000611c8b8383611c70565b60208301905092915050565b6000602082019050919050565b6000611caf82611c44565b611cb98185611c4f565b9350611cc483611c60565b8060005b83811015611cf5578151611cdc8882611c7f565b9750611ce783611c97565b925050600181019050611cc8565b5085935050505092915050565b600081519050919050565b600082825260208201905092915050565b6000819050602082019050919050565b600081519050919050565b600082825260208201905092915050565b60005b83811015611d68578082015181840152602081019050611d4d565b83811115611d77576000848401525b50505050565b6000601f19601f8301169050919050565b6000611d9982611d2e565b611da38185611d39565b9350611db3818560208601611d4a565b611dbc81611d7d565b840191505092915050565b6000611dd38383611d8e565b905092915050565b6000602082019050919050565b6000611df382611d02565b611dfd8185611d0d565b935083602082028501611e0f85611d1e565b8060005b85811015611e4b5784840389528151611e2c8582611dc7565b9450611e3783611ddb565b925060208a01995050600181019050611e13565b50829750879550505050505092915050565b600060c082019050611e726000830189611b29565b611e7f6020830188611b45565b8181036040830152611e918187611be6565b90508181036060830152611ea58186611ca4565b90508181036080830152611eb98185611de8565b905081810360a0830152611ecd8184611ca4565b9050979650505050505050565b611ee381611ba0565b8114611eee57600080fd5b50565b600081359050611f0081611eda565b92915050565b600060208284031215611f1c57611f1b611aac565b5b6000611f2a84828501611ef1565b91505092915050565b611f3c81611ba0565b82525050565b600082825260208201905092915050565b6000611f5e82611d2e565b611f688185611f42565b9350611f78818560208601611d4a565b611f8181611d7d565b840191505092915050565b611f9581611ab6565b82525050565b6000606082019050611fb06000830186611f33565b8181036020830152611fc28185611f53565b9050611fd16040830184611f8c565b949350505050565b611fe281611b38565b8114611fed57600080fd5b50565b600081359050611fff81611fd9565b92915050565b61200e81611b19565b811461201957600080fd5b50565b60008135905061202b81612005565b92915050565b6000806040838503121561204857612047611aac565b5b600061205685828601611ff0565b92505060206120678582860161201c565b9150509250929050565b6000806040838503121561208857612087611aac565b5b600061209685828601611ad7565b92505060206120a785828601611ef1565b9150509250929050565b600081519050919050565b600082825260208201905092915050565b6000819050602082019050919050565b6120e681611b19565b82525050565b60006120f883836120dd565b60208301905092915050565b6000602082019050919050565b600061211c826120b1565b61212681856120bc565b9350612131836120cd565b8060005b8381101561216257815161214988826120ec565b975061215483612104565b925050600181019050612135565b5085935050505092915050565b600081519050919050565b600082825260208201905092915050565b6000819050602082019050919050565b6121a481611b38565b82525050565b60006121b6838361219b565b60208301905092915050565b6000602082019050919050565b60006121da8261216f565b6121e4818561217a565b93506121ef8361218b565b8060005b8381101561222057815161220788826121aa565b9750612212836121c2565b9250506001810190506121f3565b5085935050505092915050565b600060808201905081810360008301526122478187611ca4565b9050818103602083015261225b8186611ca4565b9050818103604083015261226f8185612111565b9050818103606083015261228381846121cf565b905095945050505050565b600080fd5b600080fd5b7f4e487b7100000000000000000000000000000000000000000000000000000000600052604160045260246000fd5b6122d082611d7d565b810181811067ffffffffffffffff821117156122ef576122ee612298565b5b80604052505050565b6000612302611aa2565b905061230e82826122c7565b919050565b600067ffffffffffffffff82111561232e5761232d612298565b5b61233782611d7d565b9050602081019050919050565b82818337600083830152505050565b600061236661236184612313565b6122f8565b90508281526020810184848401111561238257612381612293565b5b61238d848285612344565b509392505050565b600082601f8301126123aa576123a961228e565b5b81356123ba848260208601612353565b91505092915050565b6000806000606084860312156123dc576123db611aac565b5b60006123ea86828701611ef1565b935050602084013567ffffffffffffffff81111561240b5761240a611ab1565b5b61241786828701612395565b925050604061242886828701611ad7565b9150509250925092565b7f4e487b7100000000000000000000000000000000000000000000000000000000600052603260045260246000fd5b7f4e487b7100000000000000000000000000000000000000000000000000000000600052602260045260246000fd5b600060028204905060018216806124a857607f821691505b602082108114156124bc576124bb612461565b5b50919050565b7f4e487b7100000000000000000000000000000000000000000000000000000000600052602160045260246000fd5b7f4e487b7100000000000000000000000000000000000000000000000000000000600052601160045260246000fd5b600061252b82611ab6565b91507fffffffffffffffffffffffffffffffffffffffffffffffffffffffffffffffff82141561255e5761255d6124f1565b5b600182019050919050565b7f596f7520617265206e6f7420616c6c6f77656400000000000000000000000000600082015250565b600061259f601383611f42565b91506125aa82612569565b602082019050919050565b600060208201905081810360008301526125ce81612592565b9050919050565b60006125e082611ab6565b91506125eb83611ab6565b9250828210156125fe576125fd6124f1565b5b828203905092915050565b600060608201905061261e6000830186611f8c565b61262b6020830185611f33565b6126386040830184611f8c565b949350505050565b600061264b82611ab6565b9150600082141561265f5761265e6124f1565b5b600182039050919050565b7f796f7520617265206e6f74206120636f75726965722100000000000000000000600082015250565b60006126a0601683611f42565b91506126ab8261266a565b602082019050919050565b600060208201905081810360008301526126cf81612693565b9050919050565b7f796f7520617265206e6f742061206e6174696f6e616c20666163696c6974696560008201527f7320776f726b6572210000000000000000000000000000000000000000000000602082015250565b6000612732602983611f42565b915061273d826126d6565b604082019050919050565b6000602082019050818103600083015261276181612725565b9050919050565b7f796f7520617265206e6f74206120726567696f6e616c20666163696c6974696560008201527f7320776f726b6572210000000000000000000000000000000000000000000000602082015250565b60006127c4602983611f42565b91506127cf82612768565b604082019050919050565b600060208201905081810360008301526127f3816127b7565b9050919050565b7f796f7520617265206e6f7420616e2068756220776f726b657221000000000000600082015250565b6000612830601a83611f42565b915061283b826127fa565b602082019050919050565b6000602082019050818103600083015261285f81612823565b9050919050565b7f546869732062617463682069732073746f72656420696e20616e6f746865722060008201527f4875622e00000000000000000000000000000000000000000000000000000000602082015250565b60006128c2602483611f42565b91506128cd82612866565b604082019050919050565b600060208201905081810360008301526128f1816128b5565b9050919050565b600061290382611ab6565b915061290e83611ab6565b9250827fffffffffffffffffffffffffffffffffffffffffffffffffffffffffffffffff03821115612943576129426124f1565b5b828201905092915050565b6008811061295f5761295e6124c2565b5b50565b60008190506129708261294e565b919050565b600061298082612962565b9050919050565b61299081612975565b82525050565b60006080820190506129ab6000830187611f8c565b6129b86020830186612987565b6129c56040830185611f33565b6129d26060830184611f8c565b95945050505050565b600681106129ec576129eb6124c2565b5b50565b60008190506129fd826129db565b919050565b6000612a0d826129ef565b9050919050565b612a1d81612a02565b82525050565b6000606082019050612a386000830186611f33565b8181036020830152612a4a8185611f53565b9050612a596040830184612a14565b94935050505056fea2646970667358221220d724d3a061c7e27f412468bbbcf8be47cb9daa0cce0ad9563e5ed0a32f621c1864736f6c634300080a0033",
  "immutableReferences": {},
  "source": "// SPDX-License-Identifier: CC-BY-SA-4.0\npragma solidity >=0.7.0 <0.9.0;\n\ncontract CovidSupplyChain {\n\n    enum BatchStatus { MANUFACTURED, DELIVER_NATIONAL, STORED_NATIONAL, DELIVER_REGIONAL, STORED_REGIONAL, DELIVER_HUB, STORED_HUB, USED}\n    enum ActorRoles  { MANUFACTURER, COURIER, NATIONAL_FACILITIES, REGIONAL_FACILITIES, VAX_HUB, ADMIN}\n\n    struct Actor\n    {\n        address id;\n        string name;\n        ActorRoles role;\n    }\n\n    struct VaccineBatch \n    {\n        uint32 size;\n        int32 temp;\n        address[] chain_actors;\n        uint256[] chain_dates;\n    }\n\n\n    VaccineBatch[] batches;\n    mapping (address => Actor) actors;\n\n    event AddActor (address id, string name, ActorRoles role);\n    event AddBatch (uint id, address manufacturer, uint date);\n    event UpdateStatus (uint id, BatchStatus status, address actor, uint date);\n\n\n    constructor() {\n        // Owner is the Main Administrator.\n        actors[msg.sender] = Actor(msg.sender, \"Owner Admin\", ActorRoles(5));\n        emit AddActor(actors[msg.sender].id, actors[msg.sender].name, actors[msg.sender].role);\n    }\n\n\n    modifier onlyAdmin() {\n        require(actors[msg.sender].role == ActorRoles.ADMIN, \"You are not allowed\");\n        _;\n    }\n\n    modifier onlyManufacturer() {\n        require(actors[msg.sender].role == ActorRoles.MANUFACTURER, \"You are not allowed\");\n        _;\n    }\n\n\n\n    function addActor (address _add, string memory _name, uint _role) public onlyAdmin\n    {\n        ActorRoles role =  ActorRoles(_role);\n        Actor memory member = Actor(_add, _name, role);\n        actors[_add] = member;\n        emit AddActor(member.id, member.name, member.role);\n    }\n\n    function getActor (address _actor) public view returns ( address, string memory,  uint)\n    {\n        return (actors[_actor].id, actors[_actor].name, uint(actors[_actor].role)) ;\n    }\n\n\n    function addBatch (int32 temp, uint32 size) public onlyManufacturer\n    {\n\n        uint256 date = block.timestamp;\n\n        VaccineBatch memory lastBatch;\n        lastBatch.temp = temp;\n        lastBatch.size = size;\n        lastBatch.chain_actors = new address[](1);\n        lastBatch.chain_dates = new uint[](1);\n        batches.push(lastBatch);\n\n        batches[batches.length-1].chain_actors[0] = msg.sender;\n        batches[batches.length-1].chain_dates[0] = date;\n\n        emit AddBatch(batches.length-1, batches[batches.length-1].chain_actors[0], batches[batches.length-1].chain_dates[0]);\n    }\n\n\n\n    function updateStatus (uint _batch) public\n    {\n        VaccineBatch storage batch = batches[_batch];\n        Actor memory actor = actors[msg.sender];\n        BatchStatus status = BatchStatus(batch.chain_actors.length-1);\n\n        if (status == BatchStatus.MANUFACTURED) {\n            require(actor.role == ActorRoles.COURIER, \"you are not a courier!\");\n        }\n        else if (status == BatchStatus.DELIVER_NATIONAL) {\n            require(actor.role == ActorRoles.NATIONAL_FACILITIES, \"you are not a national facilities worker!\");\n        }\n        else if (status == BatchStatus.STORED_NATIONAL) {\n            require(actor.role == ActorRoles.COURIER, \"you are not a courier!\");\n        }\n        else if (status == BatchStatus.DELIVER_REGIONAL) {\n            require(actor.role == ActorRoles.REGIONAL_FACILITIES, \"you are not a regional facilities worker!\");\n        }\n        else if (status == BatchStatus.STORED_REGIONAL) {\n            require(actor.role == ActorRoles.COURIER, \"you are not a courier!\");\n        }\n        else if (status == BatchStatus.DELIVER_HUB) {\n            require(actor.role == ActorRoles.VAX_HUB, \"you are not an hub worker!\");\n        }\n        else if (status == BatchStatus.STORED_HUB) {\n            require(actor.role == ActorRoles.VAX_HUB, \"you are not an hub worker!\");\n            require(msg.sender == batch.chain_actors[batch.chain_actors.length-1], \"This batch is stored in another Hub.\");\n        }\n\n        batch.chain_dates.push(block.timestamp);\n        batch.chain_actors.push(msg.sender);\n\n        emit UpdateStatus (_batch, BatchStatus(uint(status)+1), actor.id, block.timestamp);\n    } \n\n\n    function getTimeline (uint id) public view returns ( uint32, int32, address[] memory, uint256[] memory, string[] memory, uint[] memory)\n    {\n        VaccineBatch memory batch = batches[id];\n\n        string[] memory chain_names = new string[](batch.chain_actors.length);\n        uint[] memory chain_roles = new uint[](batch.chain_actors.length);\n\n        for (uint i = 0; i < batch.chain_actors.length; i++) { \n            chain_names[i] = actors[batch.chain_actors[i]].name;\n            chain_roles[i] = uint(actors[batch.chain_actors[i]].role);\n        }\n\n        return (batch.size, batch.temp, batch.chain_actors, batch.chain_dates, chain_names, chain_roles) ;\n    }\n\n    function getMyLastNBatch (uint n, address actor) public view returns ( uint256[] memory, uint256[] memory, uint32[] memory, int32[] memory)\n    {\n        uint[] memory ids = new uint[](n);\n        uint[] memory status = new uint[](n);\n        int32[] memory temps = new int32[](n);\n        uint32[] memory sizes = new uint32[](n);\n\n        uint k = 0;\n\n        for (uint i = batches.length; i > 0; i--) {\n            uint j = batches[i-1].chain_actors.length-1;\n            if(batches[i-1].chain_actors[j] == actor)\n            {\n                ids[k] = i-1;\n                status[k] = j;\n                temps[k] = batches[i-1].temp;\n                sizes[k] = batches[i-1].size;\n                k++;\n                if (k >= n){break;}\n            }\n        }\n        return (ids,status,sizes,temps) ;\n    }\n\n}",
  "sourcePath": "/home/andrea/Scrivania/AFC/progetto-BC/back-end/contracts/CovidSupplyChain.sol",
  "compiler": {
    "name": "solc",
    "version": "0.8.10+commit.fc410830.Emscripten.clang"
  },
  "schemaVersion": "3.4.3",
  "updatedAt": "2022-02-14T16:39:03.142Z",
  "networkType": "ethereum",
  "devdoc": {
    "kind": "dev",
    "methods": {},
    "version": 1
  },
  "userdoc": {
    "kind": "user",
    "methods": {},
    "version": 1
  }
}